{"abi":[{"inputs":[{"internalType":"uint256","name":"minContribution","type":"uint256"}],"name":"createCampaign","outputs":[],"stateMutability":"nonpayable","type":"function"},{"inputs":[{"internalType":"uint256","name":"","type":"uint256"}],"name":"deployedCampaigns","outputs":[{"internalType":"address","name":"","type":"address"}],"stateMutability":"view","type":"function"},{"inputs":[],"name":"getAllCampaigns","outputs":[{"internalType":"address[]","name":"","type":"address[]"}],"stateMutability":"view","type":"function"}],"devdoc":{"kind":"dev","methods":{},"version":1},"evm":{"assembly":"    /* \"Campaign.sol\":58:647  contract CampaignFactory {... */\n  mstore(0x40, 0x80)\n  callvalue\n  dup1\n  iszero\n  tag_1\n  jumpi\n  0x00\n  dup1\n  revert\ntag_1:\n  pop\n  dataSize(sub_0)\n  dup1\n  dataOffset(sub_0)\n  0x00\n  codecopy\n  0x00\n  return\nstop\n\nsub_0: assembly {\n        /* \"Campaign.sol\":58:647  contract CampaignFactory {... */\n      mstore(0x40, 0x80)\n      callvalue\n      dup1\n      iszero\n      tag_1\n      jumpi\n      0x00\n      dup1\n      revert\n    tag_1:\n      pop\n      jumpi(tag_2, lt(calldatasize, 0x04))\n      shr(0xe0, calldataload(0x00))\n      dup1\n      0x339d50a5\n      eq\n      tag_3\n      jumpi\n      dup1\n      0x86cdf604\n      eq\n      tag_4\n      jumpi\n      dup1\n      0xa3303a75\n      eq\n      tag_5\n      jumpi\n    tag_2:\n      0x00\n      dup1\n      revert\n        /* \"Campaign.sol\":89:123  address[] public deployedCampaigns */\n    tag_3:\n      tag_6\n      0x04\n      dup1\n      calldatasize\n      sub\n      dup2\n      add\n      swap1\n      tag_7\n      swap2\n      swap1\n      tag_8\n      jump\t// in\n    tag_7:\n      tag_9\n      jump\t// in\n    tag_6:\n      mload(0x40)\n      tag_10\n      swap2\n      swap1\n      tag_11\n      jump\t// in\n    tag_10:\n      mload(0x40)\n      dup1\n      swap2\n      sub\n      swap1\n      return\n        /* \"Campaign.sol\":538:645  function getAllCampaigns() public view returns (address[] memory) {... */\n    tag_4:\n      tag_12\n      tag_13\n      jump\t// in\n    tag_12:\n      mload(0x40)\n      tag_14\n      swap2\n      swap1\n      tag_15\n      jump\t// in\n    tag_14:\n      mload(0x40)\n      dup1\n      swap2\n      sub\n      swap1\n      return\n        /* \"Campaign.sol\":331:532  function createCampaign(uint minContribution) public {... */\n    tag_5:\n      tag_16\n      0x04\n      dup1\n      calldatasize\n      sub\n      dup2\n      add\n      swap1\n      tag_17\n      swap2\n      swap1\n      tag_8\n      jump\t// in\n    tag_17:\n      tag_18\n      jump\t// in\n    tag_16:\n      stop\n        /* \"Campaign.sol\":89:123  address[] public deployedCampaigns */\n    tag_9:\n      0x00\n      dup2\n      dup2\n      sload\n      dup2\n      lt\n      tag_19\n      jumpi\n      0x00\n      dup1\n      revert\n    tag_19:\n      swap1\n      0x00\n      mstore\n      keccak256(0x00, 0x20)\n      add\n      0x00\n      swap2\n      pop\n      sload\n      swap1\n      0x0100\n      exp\n      swap1\n      div\n      0xffffffffffffffffffffffffffffffffffffffff\n      and\n      dup2\n      jump\t// out\n        /* \"Campaign.sol\":538:645  function getAllCampaigns() public view returns (address[] memory) {... */\n    tag_13:\n        /* \"Campaign.sol\":586:602  address[] memory */\n      0x60\n        /* \"Campaign.sol\":621:638  deployedCampaigns */\n      0x00\n        /* \"Campaign.sol\":614:638  return deployedCampaigns */\n      dup1\n      sload\n      dup1\n      0x20\n      mul\n      0x20\n      add\n      mload(0x40)\n      swap1\n      dup2\n      add\n      0x40\n      mstore\n      dup1\n      swap3\n      swap2\n      swap1\n      dup2\n      dup2\n      mstore\n      0x20\n      add\n      dup3\n      dup1\n      sload\n      dup1\n      iszero\n      tag_22\n      jumpi\n      0x20\n      mul\n      dup3\n      add\n      swap2\n      swap1\n      0x00\n      mstore\n      keccak256(0x00, 0x20)\n      swap1\n    tag_23:\n      dup2\n      0x00\n      swap1\n      sload\n      swap1\n      0x0100\n      exp\n      swap1\n      div\n      0xffffffffffffffffffffffffffffffffffffffff\n      and\n      0xffffffffffffffffffffffffffffffffffffffff\n      and\n      dup2\n      mstore\n      0x20\n      add\n      swap1\n      0x01\n      add\n      swap1\n      dup1\n      dup4\n      gt\n      tag_23\n      jumpi\n    tag_22:\n      pop\n      pop\n      pop\n      pop\n      pop\n      swap1\n      pop\n        /* \"Campaign.sol\":538:645  function getAllCampaigns() public view returns (address[] memory) {... */\n      swap1\n      jump\t// out\n        /* \"Campaign.sol\":331:532  function createCampaign(uint minContribution) public {... */\n    tag_18:\n        /* \"Campaign.sol\":394:420  address newCampaignAddress */\n      0x00\n        /* \"Campaign.sol\":444:459  minContribution */\n      dup2\n        /* \"Campaign.sol\":461:471  msg.sender */\n      caller\n        /* \"Campaign.sol\":431:472  new Campaign(minContribution, msg.sender) */\n      mload(0x40)\n      tag_25\n      swap1\n      tag_26\n      jump\t// in\n    tag_25:\n      tag_27\n      swap3\n      swap2\n      swap1\n      tag_28\n      jump\t// in\n    tag_27:\n      mload(0x40)\n      dup1\n      swap2\n      sub\n      swap1\n      0x00\n      create\n      dup1\n      iszero\n      dup1\n      iszero\n      tag_29\n      jumpi\n      returndatasize\n      0x00\n      dup1\n      returndatacopy\n      revert(0x00, returndatasize)\n    tag_29:\n      pop\n        /* \"Campaign.sol\":394:473  address newCampaignAddress = address(new Campaign(minContribution, msg.sender)) */\n      swap1\n      pop\n        /* \"Campaign.sol\":483:500  deployedCampaigns */\n      0x00\n        /* \"Campaign.sol\":506:524  newCampaignAddress */\n      dup2\n        /* \"Campaign.sol\":483:525  deployedCampaigns.push(newCampaignAddress) */\n      swap1\n      dup1\n      0x01\n      dup2\n      sload\n      add\n      dup1\n      dup3\n      sstore\n      dup1\n      swap2\n      pop\n      pop\n      0x01\n      swap1\n      sub\n      swap1\n      0x00\n      mstore\n      keccak256(0x00, 0x20)\n      add\n      0x00\n      swap1\n      swap2\n      swap1\n      swap2\n      swap1\n      swap2\n      0x0100\n      exp\n      dup2\n      sload\n      dup2\n      0xffffffffffffffffffffffffffffffffffffffff\n      mul\n      not\n      and\n      swap1\n      dup4\n      0xffffffffffffffffffffffffffffffffffffffff\n      and\n      mul\n      or\n      swap1\n      sstore\n      pop\n        /* \"Campaign.sol\":384:532  {... */\n      pop\n        /* \"Campaign.sol\":331:532  function createCampaign(uint minContribution) public {... */\n      pop\n      jump\t// out\n    tag_26:\n      dataSize(sub_0)\n      dup1\n      dataOffset(sub_0)\n      dup4\n      codecopy\n      add\n      swap1\n      jump\t// out\n        /* \"#utility.yul\":88:205   */\n    tag_32:\n        /* \"#utility.yul\":197:198   */\n      0x00\n        /* \"#utility.yul\":194:195   */\n      dup1\n        /* \"#utility.yul\":187:199   */\n      revert\n        /* \"#utility.yul\":334:411   */\n    tag_34:\n        /* \"#utility.yul\":371:378   */\n      0x00\n        /* \"#utility.yul\":400:405   */\n      dup2\n        /* \"#utility.yul\":389:405   */\n      swap1\n      pop\n        /* \"#utility.yul\":334:411   */\n      swap2\n      swap1\n      pop\n      jump\t// out\n        /* \"#utility.yul\":417:539   */\n    tag_35:\n        /* \"#utility.yul\":490:514   */\n      tag_54\n        /* \"#utility.yul\":508:513   */\n      dup2\n        /* \"#utility.yul\":490:514   */\n      tag_34\n      jump\t// in\n    tag_54:\n        /* \"#utility.yul\":483:488   */\n      dup2\n        /* \"#utility.yul\":480:515   */\n      eq\n        /* \"#utility.yul\":470:533   */\n      tag_55\n      jumpi\n        /* \"#utility.yul\":529:530   */\n      0x00\n        /* \"#utility.yul\":526:527   */\n      dup1\n        /* \"#utility.yul\":519:531   */\n      revert\n        /* \"#utility.yul\":470:533   */\n    tag_55:\n        /* \"#utility.yul\":417:539   */\n      pop\n      jump\t// out\n        /* \"#utility.yul\":545:684   */\n    tag_36:\n        /* \"#utility.yul\":591:596   */\n      0x00\n        /* \"#utility.yul\":629:635   */\n      dup2\n        /* \"#utility.yul\":616:636   */\n      calldataload\n        /* \"#utility.yul\":607:636   */\n      swap1\n      pop\n        /* \"#utility.yul\":645:678   */\n      tag_57\n        /* \"#utility.yul\":672:677   */\n      dup2\n        /* \"#utility.yul\":645:678   */\n      tag_35\n      jump\t// in\n    tag_57:\n        /* \"#utility.yul\":545:684   */\n      swap3\n      swap2\n      pop\n      pop\n      jump\t// out\n        /* \"#utility.yul\":690:1019   */\n    tag_8:\n        /* \"#utility.yul\":749:755   */\n      0x00\n        /* \"#utility.yul\":798:800   */\n      0x20\n        /* \"#utility.yul\":786:795   */\n      dup3\n        /* \"#utility.yul\":777:784   */\n      dup5\n        /* \"#utility.yul\":773:796   */\n      sub\n        /* \"#utility.yul\":769:801   */\n      slt\n        /* \"#utility.yul\":766:885   */\n      iszero\n      tag_59\n      jumpi\n        /* \"#utility.yul\":804:883   */\n      tag_60\n      tag_32\n      jump\t// in\n    tag_60:\n        /* \"#utility.yul\":766:885   */\n    tag_59:\n        /* \"#utility.yul\":924:925   */\n      0x00\n        /* \"#utility.yul\":949:1002   */\n      tag_61\n        /* \"#utility.yul\":994:1001   */\n      dup5\n        /* \"#utility.yul\":985:991   */\n      dup3\n        /* \"#utility.yul\":974:983   */\n      dup6\n        /* \"#utility.yul\":970:992   */\n      add\n        /* \"#utility.yul\":949:1002   */\n      tag_36\n      jump\t// in\n    tag_61:\n        /* \"#utility.yul\":939:1002   */\n      swap2\n      pop\n        /* \"#utility.yul\":895:1012   */\n      pop\n        /* \"#utility.yul\":690:1019   */\n      swap3\n      swap2\n      pop\n      pop\n      jump\t// out\n        /* \"#utility.yul\":1025:1151   */\n    tag_37:\n        /* \"#utility.yul\":1062:1069   */\n      0x00\n        /* \"#utility.yul\":1102:1144   */\n      0xffffffffffffffffffffffffffffffffffffffff\n        /* \"#utility.yul\":1095:1100   */\n      dup3\n        /* \"#utility.yul\":1091:1145   */\n      and\n        /* \"#utility.yul\":1080:1145   */\n      swap1\n      pop\n        /* \"#utility.yul\":1025:1151   */\n      swap2\n      swap1\n      pop\n      jump\t// out\n        /* \"#utility.yul\":1157:1253   */\n    tag_38:\n        /* \"#utility.yul\":1194:1201   */\n      0x00\n        /* \"#utility.yul\":1223:1247   */\n      tag_64\n        /* \"#utility.yul\":1241:1246   */\n      dup3\n        /* \"#utility.yul\":1223:1247   */\n      tag_37\n      jump\t// in\n    tag_64:\n        /* \"#utility.yul\":1212:1247   */\n      swap1\n      pop\n        /* \"#utility.yul\":1157:1253   */\n      swap2\n      swap1\n      pop\n      jump\t// out\n        /* \"#utility.yul\":1259:1377   */\n    tag_39:\n        /* \"#utility.yul\":1346:1370   */\n      tag_66\n        /* \"#utility.yul\":1364:1369   */\n      dup2\n        /* \"#utility.yul\":1346:1370   */\n      tag_38\n      jump\t// in\n    tag_66:\n        /* \"#utility.yul\":1341:1344   */\n      dup3\n        /* \"#utility.yul\":1334:1371   */\n      mstore\n        /* \"#utility.yul\":1259:1377   */\n      pop\n      pop\n      jump\t// out\n        /* \"#utility.yul\":1383:1605   */\n    tag_11:\n        /* \"#utility.yul\":1476:1480   */\n      0x00\n        /* \"#utility.yul\":1514:1516   */\n      0x20\n        /* \"#utility.yul\":1503:1512   */\n      dup3\n        /* \"#utility.yul\":1499:1517   */\n      add\n        /* \"#utility.yul\":1491:1517   */\n      swap1\n      pop\n        /* \"#utility.yul\":1527:1598   */\n      tag_68\n        /* \"#utility.yul\":1595:1596   */\n      0x00\n        /* \"#utility.yul\":1584:1593   */\n      dup4\n        /* \"#utility.yul\":1580:1597   */\n      add\n        /* \"#utility.yul\":1571:1577   */\n      dup5\n        /* \"#utility.yul\":1527:1598   */\n      tag_39\n      jump\t// in\n    tag_68:\n        /* \"#utility.yul\":1383:1605   */\n      swap3\n      swap2\n      pop\n      pop\n      jump\t// out\n        /* \"#utility.yul\":1611:1725   */\n    tag_40:\n        /* \"#utility.yul\":1678:1684   */\n      0x00\n        /* \"#utility.yul\":1712:1717   */\n      dup2\n        /* \"#utility.yul\":1706:1718   */\n      mload\n        /* \"#utility.yul\":1696:1718   */\n      swap1\n      pop\n        /* \"#utility.yul\":1611:1725   */\n      swap2\n      swap1\n      pop\n      jump\t// out\n        /* \"#utility.yul\":1731:1915   */\n    tag_41:\n        /* \"#utility.yul\":1830:1841   */\n      0x00\n        /* \"#utility.yul\":1864:1870   */\n      dup3\n        /* \"#utility.yul\":1859:1862   */\n      dup3\n        /* \"#utility.yul\":1852:1871   */\n      mstore\n        /* \"#utility.yul\":1904:1908   */\n      0x20\n        /* \"#utility.yul\":1899:1902   */\n      dup3\n        /* \"#utility.yul\":1895:1909   */\n      add\n        /* \"#utility.yul\":1880:1909   */\n      swap1\n      pop\n        /* \"#utility.yul\":1731:1915   */\n      swap3\n      swap2\n      pop\n      pop\n      jump\t// out\n        /* \"#utility.yul\":1921:2053   */\n    tag_42:\n        /* \"#utility.yul\":1988:1992   */\n      0x00\n        /* \"#utility.yul\":2011:2014   */\n      dup2\n        /* \"#utility.yul\":2003:2014   */\n      swap1\n      pop\n        /* \"#utility.yul\":2041:2045   */\n      0x20\n        /* \"#utility.yul\":2036:2039   */\n      dup3\n        /* \"#utility.yul\":2032:2046   */\n      add\n        /* \"#utility.yul\":2024:2046   */\n      swap1\n      pop\n        /* \"#utility.yul\":1921:2053   */\n      swap2\n      swap1\n      pop\n      jump\t// out\n        /* \"#utility.yul\":2059:2167   */\n    tag_43:\n        /* \"#utility.yul\":2136:2160   */\n      tag_73\n        /* \"#utility.yul\":2154:2159   */\n      dup2\n        /* \"#utility.yul\":2136:2160   */\n      tag_38\n      jump\t// in\n    tag_73:\n        /* \"#utility.yul\":2131:2134   */\n      dup3\n        /* \"#utility.yul\":2124:2161   */\n      mstore\n        /* \"#utility.yul\":2059:2167   */\n      pop\n      pop\n      jump\t// out\n        /* \"#utility.yul\":2173:2352   */\n    tag_44:\n        /* \"#utility.yul\":2242:2252   */\n      0x00\n        /* \"#utility.yul\":2263:2309   */\n      tag_75\n        /* \"#utility.yul\":2305:2308   */\n      dup4\n        /* \"#utility.yul\":2297:2303   */\n      dup4\n        /* \"#utility.yul\":2263:2309   */\n      tag_43\n      jump\t// in\n    tag_75:\n        /* \"#utility.yul\":2341:2345   */\n      0x20\n        /* \"#utility.yul\":2336:2339   */\n      dup4\n        /* \"#utility.yul\":2332:2346   */\n      add\n        /* \"#utility.yul\":2318:2346   */\n      swap1\n      pop\n        /* \"#utility.yul\":2173:2352   */\n      swap3\n      swap2\n      pop\n      pop\n      jump\t// out\n        /* \"#utility.yul\":2358:2471   */\n    tag_45:\n        /* \"#utility.yul\":2428:2432   */\n      0x00\n        /* \"#utility.yul\":2460:2464   */\n      0x20\n        /* \"#utility.yul\":2455:2458   */\n      dup3\n        /* \"#utility.yul\":2451:2465   */\n      add\n        /* \"#utility.yul\":2443:2465   */\n      swap1\n      pop\n        /* \"#utility.yul\":2358:2471   */\n      swap2\n      swap1\n      pop\n      jump\t// out\n        /* \"#utility.yul\":2507:3239   */\n    tag_46:\n        /* \"#utility.yul\":2626:2629   */\n      0x00\n        /* \"#utility.yul\":2655:2709   */\n      tag_78\n        /* \"#utility.yul\":2703:2708   */\n      dup3\n        /* \"#utility.yul\":2655:2709   */\n      tag_40\n      jump\t// in\n    tag_78:\n        /* \"#utility.yul\":2725:2811   */\n      tag_79\n        /* \"#utility.yul\":2804:2810   */\n      dup2\n        /* \"#utility.yul\":2799:2802   */\n      dup6\n        /* \"#utility.yul\":2725:2811   */\n      tag_41\n      jump\t// in\n    tag_79:\n        /* \"#utility.yul\":2718:2811   */\n      swap4\n      pop\n        /* \"#utility.yul\":2835:2891   */\n      tag_80\n        /* \"#utility.yul\":2885:2890   */\n      dup4\n        /* \"#utility.yul\":2835:2891   */\n      tag_42\n      jump\t// in\n    tag_80:\n        /* \"#utility.yul\":2914:2921   */\n      dup1\n        /* \"#utility.yul\":2945:2946   */\n      0x00\n        /* \"#utility.yul\":2930:3214   */\n    tag_81:\n        /* \"#utility.yul\":2955:2961   */\n      dup4\n        /* \"#utility.yul\":2952:2953   */\n      dup2\n        /* \"#utility.yul\":2949:2962   */\n      lt\n        /* \"#utility.yul\":2930:3214   */\n      iszero\n      tag_83\n      jumpi\n        /* \"#utility.yul\":3031:3037   */\n      dup2\n        /* \"#utility.yul\":3025:3038   */\n      mload\n        /* \"#utility.yul\":3058:3121   */\n      tag_84\n        /* \"#utility.yul\":3117:3120   */\n      dup9\n        /* \"#utility.yul\":3102:3115   */\n      dup3\n        /* \"#utility.yul\":3058:3121   */\n      tag_44\n      jump\t// in\n    tag_84:\n        /* \"#utility.yul\":3051:3121   */\n      swap8\n      pop\n        /* \"#utility.yul\":3144:3204   */\n      tag_85\n        /* \"#utility.yul\":3197:3203   */\n      dup4\n        /* \"#utility.yul\":3144:3204   */\n      tag_45\n      jump\t// in\n    tag_85:\n        /* \"#utility.yul\":3134:3204   */\n      swap3\n      pop\n        /* \"#utility.yul\":2990:3214   */\n      pop\n        /* \"#utility.yul\":2977:2978   */\n      0x01\n        /* \"#utility.yul\":2974:2975   */\n      dup2\n        /* \"#utility.yul\":2970:2979   */\n      add\n        /* \"#utility.yul\":2965:2979   */\n      swap1\n      pop\n        /* \"#utility.yul\":2930:3214   */\n      jump(tag_81)\n    tag_83:\n        /* \"#utility.yul\":2934:2948   */\n      pop\n        /* \"#utility.yul\":3230:3233   */\n      dup6\n        /* \"#utility.yul\":3223:3233   */\n      swap4\n      pop\n        /* \"#utility.yul\":2631:3239   */\n      pop\n      pop\n      pop\n        /* \"#utility.yul\":2507:3239   */\n      swap3\n      swap2\n      pop\n      pop\n      jump\t// out\n        /* \"#utility.yul\":3245:3618   */\n    tag_15:\n        /* \"#utility.yul\":3388:3392   */\n      0x00\n        /* \"#utility.yul\":3426:3428   */\n      0x20\n        /* \"#utility.yul\":3415:3424   */\n      dup3\n        /* \"#utility.yul\":3411:3429   */\n      add\n        /* \"#utility.yul\":3403:3429   */\n      swap1\n      pop\n        /* \"#utility.yul\":3475:3484   */\n      dup2\n        /* \"#utility.yul\":3469:3473   */\n      dup2\n        /* \"#utility.yul\":3465:3485   */\n      sub\n        /* \"#utility.yul\":3461:3462   */\n      0x00\n        /* \"#utility.yul\":3450:3459   */\n      dup4\n        /* \"#utility.yul\":3446:3463   */\n      add\n        /* \"#utility.yul\":3439:3486   */\n      mstore\n        /* \"#utility.yul\":3503:3611   */\n      tag_87\n        /* \"#utility.yul\":3606:3610   */\n      dup2\n        /* \"#utility.yul\":3597:3603   */\n      dup5\n        /* \"#utility.yul\":3503:3611   */\n      tag_46\n      jump\t// in\n    tag_87:\n        /* \"#utility.yul\":3495:3611   */\n      swap1\n      pop\n        /* \"#utility.yul\":3245:3618   */\n      swap3\n      swap2\n      pop\n      pop\n      jump\t// out\n        /* \"#utility.yul\":3624:3742   */\n    tag_47:\n        /* \"#utility.yul\":3711:3735   */\n      tag_89\n        /* \"#utility.yul\":3729:3734   */\n      dup2\n        /* \"#utility.yul\":3711:3735   */\n      tag_34\n      jump\t// in\n    tag_89:\n        /* \"#utility.yul\":3706:3709   */\n      dup3\n        /* \"#utility.yul\":3699:3736   */\n      mstore\n        /* \"#utility.yul\":3624:3742   */\n      pop\n      pop\n      jump\t// out\n        /* \"#utility.yul\":3748:4080   */\n    tag_28:\n        /* \"#utility.yul\":3869:3873   */\n      0x00\n        /* \"#utility.yul\":3907:3909   */\n      0x40\n        /* \"#utility.yul\":3896:3905   */\n      dup3\n        /* \"#utility.yul\":3892:3910   */\n      add\n        /* \"#utility.yul\":3884:3910   */\n      swap1\n      pop\n        /* \"#utility.yul\":3920:3991   */\n      tag_91\n        /* \"#utility.yul\":3988:3989   */\n      0x00\n        /* \"#utility.yul\":3977:3986   */\n      dup4\n        /* \"#utility.yul\":3973:3990   */\n      add\n        /* \"#utility.yul\":3964:3970   */\n      dup6\n        /* \"#utility.yul\":3920:3991   */\n      tag_47\n      jump\t// in\n    tag_91:\n        /* \"#utility.yul\":4001:4073   */\n      tag_92\n        /* \"#utility.yul\":4069:4071   */\n      0x20\n        /* \"#utility.yul\":4058:4067   */\n      dup4\n        /* \"#utility.yul\":4054:4072   */\n      add\n        /* \"#utility.yul\":4045:4051   */\n      dup5\n        /* \"#utility.yul\":4001:4073   */\n      tag_39\n      jump\t// in\n    tag_92:\n        /* \"#utility.yul\":3748:4080   */\n      swap4\n      swap3\n      pop\n      pop\n      pop\n      jump\t// out\n    stop\n\n    sub_0: assembly {\n            /* \"Campaign.sol\":650:2827  contract Campaign {... */\n          mstore(0x40, 0x80)\n            /* \"Campaign.sol\":1543:1686  constructor(uint min_contri, address creatorAddress)  {... */\n          callvalue\n          dup1\n          iszero\n          tag_1\n          jumpi\n          0x00\n          dup1\n          revert\n        tag_1:\n          pop\n          mload(0x40)\n          sub(codesize, bytecodeSize)\n          dup1\n          bytecodeSize\n          dup4\n          codecopy\n          dup2\n          dup2\n          add\n          0x40\n          mstore\n          dup2\n          add\n          swap1\n          tag_2\n          swap2\n          swap1\n          tag_3\n          jump\t// in\n        tag_2:\n            /* \"Campaign.sol\":1625:1639  creatorAddress */\n          dup1\n            /* \"Campaign.sol\":1607:1614  manager */\n          0x00\n          dup1\n            /* \"Campaign.sol\":1607:1640  manager = payable(creatorAddress) */\n          0x0100\n          exp\n          dup2\n          sload\n          dup2\n          0xffffffffffffffffffffffffffffffffffffffff\n          mul\n          not\n          and\n          swap1\n          dup4\n          0xffffffffffffffffffffffffffffffffffffffff\n          and\n          mul\n          or\n          swap1\n          sstore\n          pop\n            /* \"Campaign.sol\":1668:1678  min_contri */\n          dup2\n            /* \"Campaign.sol\":1650:1665  minContribution */\n          0x01\n            /* \"Campaign.sol\":1650:1678  minContribution = min_contri */\n          dup2\n          swap1\n          sstore\n          pop\n            /* \"Campaign.sol\":1543:1686  constructor(uint min_contri, address creatorAddress)  {... */\n          pop\n          pop\n            /* \"Campaign.sol\":650:2827  contract Campaign {... */\n          jump(tag_6)\n            /* \"#utility.yul\":88:205   */\n        tag_8:\n            /* \"#utility.yul\":197:198   */\n          0x00\n            /* \"#utility.yul\":194:195   */\n          dup1\n            /* \"#utility.yul\":187:199   */\n          revert\n            /* \"#utility.yul\":334:411   */\n        tag_10:\n            /* \"#utility.yul\":371:378   */\n          0x00\n            /* \"#utility.yul\":400:405   */\n          dup2\n            /* \"#utility.yul\":389:405   */\n          swap1\n          pop\n            /* \"#utility.yul\":334:411   */\n          swap2\n          swap1\n          pop\n          jump\t// out\n            /* \"#utility.yul\":417:539   */\n        tag_11:\n            /* \"#utility.yul\":490:514   */\n          tag_23\n            /* \"#utility.yul\":508:513   */\n          dup2\n            /* \"#utility.yul\":490:514   */\n          tag_10\n          jump\t// in\n        tag_23:\n            /* \"#utility.yul\":483:488   */\n          dup2\n            /* \"#utility.yul\":480:515   */\n          eq\n            /* \"#utility.yul\":470:533   */\n          tag_24\n          jumpi\n            /* \"#utility.yul\":529:530   */\n          0x00\n            /* \"#utility.yul\":526:527   */\n          dup1\n            /* \"#utility.yul\":519:531   */\n          revert\n            /* \"#utility.yul\":470:533   */\n        tag_24:\n            /* \"#utility.yul\":417:539   */\n          pop\n          jump\t// out\n            /* \"#utility.yul\":545:688   */\n        tag_12:\n            /* \"#utility.yul\":602:607   */\n          0x00\n            /* \"#utility.yul\":633:639   */\n          dup2\n            /* \"#utility.yul\":627:640   */\n          mload\n            /* \"#utility.yul\":618:640   */\n          swap1\n          pop\n            /* \"#utility.yul\":649:682   */\n          tag_26\n            /* \"#utility.yul\":676:681   */\n          dup2\n            /* \"#utility.yul\":649:682   */\n          tag_11\n          jump\t// in\n        tag_26:\n            /* \"#utility.yul\":545:688   */\n          swap3\n          swap2\n          pop\n          pop\n          jump\t// out\n            /* \"#utility.yul\":694:820   */\n        tag_13:\n            /* \"#utility.yul\":731:738   */\n          0x00\n            /* \"#utility.yul\":771:813   */\n          0xffffffffffffffffffffffffffffffffffffffff\n            /* \"#utility.yul\":764:769   */\n          dup3\n            /* \"#utility.yul\":760:814   */\n          and\n            /* \"#utility.yul\":749:814   */\n          swap1\n          pop\n            /* \"#utility.yul\":694:820   */\n          swap2\n          swap1\n          pop\n          jump\t// out\n            /* \"#utility.yul\":826:922   */\n        tag_14:\n            /* \"#utility.yul\":863:870   */\n          0x00\n            /* \"#utility.yul\":892:916   */\n          tag_29\n            /* \"#utility.yul\":910:915   */\n          dup3\n            /* \"#utility.yul\":892:916   */\n          tag_13\n          jump\t// in\n        tag_29:\n            /* \"#utility.yul\":881:916   */\n          swap1\n          pop\n            /* \"#utility.yul\":826:922   */\n          swap2\n          swap1\n          pop\n          jump\t// out\n            /* \"#utility.yul\":928:1050   */\n        tag_15:\n            /* \"#utility.yul\":1001:1025   */\n          tag_31\n            /* \"#utility.yul\":1019:1024   */\n          dup2\n            /* \"#utility.yul\":1001:1025   */\n          tag_14\n          jump\t// in\n        tag_31:\n            /* \"#utility.yul\":994:999   */\n          dup2\n            /* \"#utility.yul\":991:1026   */\n          eq\n            /* \"#utility.yul\":981:1044   */\n          tag_32\n          jumpi\n            /* \"#utility.yul\":1040:1041   */\n          0x00\n            /* \"#utility.yul\":1037:1038   */\n          dup1\n            /* \"#utility.yul\":1030:1042   */\n          revert\n            /* \"#utility.yul\":981:1044   */\n        tag_32:\n            /* \"#utility.yul\":928:1050   */\n          pop\n          jump\t// out\n            /* \"#utility.yul\":1056:1199   */\n        tag_16:\n            /* \"#utility.yul\":1113:1118   */\n          0x00\n            /* \"#utility.yul\":1144:1150   */\n          dup2\n            /* \"#utility.yul\":1138:1151   */\n          mload\n            /* \"#utility.yul\":1129:1151   */\n          swap1\n          pop\n            /* \"#utility.yul\":1160:1193   */\n          tag_34\n            /* \"#utility.yul\":1187:1192   */\n          dup2\n            /* \"#utility.yul\":1160:1193   */\n          tag_15\n          jump\t// in\n        tag_34:\n            /* \"#utility.yul\":1056:1199   */\n          swap3\n          swap2\n          pop\n          pop\n          jump\t// out\n            /* \"#utility.yul\":1205:1712   */\n        tag_3:\n            /* \"#utility.yul\":1284:1290   */\n          0x00\n            /* \"#utility.yul\":1292:1298   */\n          dup1\n            /* \"#utility.yul\":1341:1343   */\n          0x40\n            /* \"#utility.yul\":1329:1338   */\n          dup4\n            /* \"#utility.yul\":1320:1327   */\n          dup6\n            /* \"#utility.yul\":1316:1339   */\n          sub\n            /* \"#utility.yul\":1312:1344   */\n          slt\n            /* \"#utility.yul\":1309:1428   */\n          iszero\n          tag_36\n          jumpi\n            /* \"#utility.yul\":1347:1426   */\n          tag_37\n          tag_8\n          jump\t// in\n        tag_37:\n            /* \"#utility.yul\":1309:1428   */\n        tag_36:\n            /* \"#utility.yul\":1467:1468   */\n          0x00\n            /* \"#utility.yul\":1492:1556   */\n          tag_38\n            /* \"#utility.yul\":1548:1555   */\n          dup6\n            /* \"#utility.yul\":1539:1545   */\n          dup3\n            /* \"#utility.yul\":1528:1537   */\n          dup7\n            /* \"#utility.yul\":1524:1546   */\n          add\n            /* \"#utility.yul\":1492:1556   */\n          tag_12\n          jump\t// in\n        tag_38:\n            /* \"#utility.yul\":1482:1556   */\n          swap3\n          pop\n            /* \"#utility.yul\":1438:1566   */\n          pop\n            /* \"#utility.yul\":1605:1607   */\n          0x20\n            /* \"#utility.yul\":1631:1695   */\n          tag_39\n            /* \"#utility.yul\":1687:1694   */\n          dup6\n            /* \"#utility.yul\":1678:1684   */\n          dup3\n            /* \"#utility.yul\":1667:1676   */\n          dup7\n            /* \"#utility.yul\":1663:1685   */\n          add\n            /* \"#utility.yul\":1631:1695   */\n          tag_16\n          jump\t// in\n        tag_39:\n            /* \"#utility.yul\":1621:1695   */\n          swap2\n          pop\n            /* \"#utility.yul\":1576:1705   */\n          pop\n            /* \"#utility.yul\":1205:1712   */\n          swap3\n          pop\n          swap3\n          swap1\n          pop\n          jump\t// out\n            /* \"Campaign.sol\":650:2827  contract Campaign {... */\n        tag_6:\n          dataSize(sub_0)\n          dup1\n          dataOffset(sub_0)\n          0x00\n          codecopy\n          0x00\n          return\n        stop\n\n        sub_0: assembly {\n                /* \"Campaign.sol\":650:2827  contract Campaign {... */\n              mstore(0x40, 0x80)\n              jumpi(tag_1, lt(calldatasize, 0x04))\n              shr(0xe0, calldataload(0x00))\n              dup1\n              0x8735dc78\n              gt\n              tag_14\n              jumpi\n              dup1\n              0x8735dc78\n              eq\n              tag_8\n              jumpi\n              dup1\n              0x8a9cfd55\n              eq\n              tag_9\n              jumpi\n              dup1\n              0x9fb42b1f\n              eq\n              tag_10\n              jumpi\n              dup1\n              0xaaffadf3\n              eq\n              tag_11\n              jumpi\n              dup1\n              0xd7bb99ba\n              eq\n              tag_12\n              jumpi\n              dup1\n              0xd7d1bbdb\n              eq\n              tag_13\n              jumpi\n              jump(tag_1)\n            tag_14:\n              dup1\n              0x03441006\n              eq\n              tag_2\n              jumpi\n              dup1\n              0x0a144391\n              eq\n              tag_3\n              jumpi\n              dup1\n              0x3410452a\n              eq\n              tag_4\n              jumpi\n              dup1\n              0x4051ddac\n              eq\n              tag_5\n              jumpi\n              dup1\n              0x481c6a75\n              eq\n              tag_6\n              jumpi\n              dup1\n              0x81d12c58\n              eq\n              tag_7\n              jumpi\n            tag_1:\n              0x00\n              dup1\n              revert\n                /* \"Campaign.sol\":2424:2824  function finalizeRequest(uint reqIndex) public restricted {... */\n            tag_2:\n              callvalue\n              dup1\n              iszero\n              tag_15\n              jumpi\n              0x00\n              dup1\n              revert\n            tag_15:\n              pop\n              tag_16\n              0x04\n              dup1\n              calldatasize\n              sub\n              dup2\n              add\n              swap1\n              tag_17\n              swap2\n              swap1\n              tag_18\n              jump\t// in\n            tag_17:\n              tag_19\n              jump\t// in\n            tag_16:\n              stop\n                /* \"Campaign.sol\":1016:1057  mapping(address => bool) public approvers */\n            tag_3:\n              callvalue\n              dup1\n              iszero\n              tag_20\n              jumpi\n              0x00\n              dup1\n              revert\n            tag_20:\n              pop\n              tag_21\n              0x04\n              dup1\n              calldatasize\n              sub\n              dup2\n              add\n              swap1\n              tag_22\n              swap2\n              swap1\n              tag_23\n              jump\t// in\n            tag_22:\n              tag_24\n              jump\t// in\n            tag_21:\n              mload(0x40)\n              tag_25\n              swap2\n              swap1\n              tag_26\n              jump\t// in\n            tag_25:\n              mload(0x40)\n              dup1\n              swap2\n              sub\n              swap1\n              return\n                /* \"Campaign.sol\":1359:1449  function getRequestsCount() public view returns(uint){... */\n            tag_4:\n              callvalue\n              dup1\n              iszero\n              tag_27\n              jumpi\n              0x00\n              dup1\n              revert\n            tag_27:\n              pop\n              tag_28\n              tag_29\n              jump\t// in\n            tag_28:\n              mload(0x40)\n              tag_30\n              swap2\n              swap1\n              tag_31\n              jump\t// in\n            tag_30:\n              mload(0x40)\n              dup1\n              swap2\n              sub\n              swap1\n              return\n                /* \"Campaign.sol\":1112:1353  function getSummary() public view returns(... */\n            tag_5:\n              callvalue\n              dup1\n              iszero\n              tag_32\n              jumpi\n              0x00\n              dup1\n              revert\n            tag_32:\n              pop\n              tag_33\n              tag_34\n              jump\t// in\n            tag_33:\n              mload(0x40)\n              tag_35\n              swap6\n              swap5\n              swap4\n              swap3\n              swap2\n              swap1\n              tag_36\n              jump\t// in\n            tag_35:\n              mload(0x40)\n              dup1\n              swap2\n              sub\n              swap1\n              return\n                /* \"Campaign.sol\":883:913  address payable public manager */\n            tag_6:\n              callvalue\n              dup1\n              iszero\n              tag_37\n              jumpi\n              0x00\n              dup1\n              revert\n            tag_37:\n              pop\n              tag_38\n              tag_39\n              jump\t// in\n            tag_38:\n              mload(0x40)\n              tag_40\n              swap2\n              swap1\n              tag_41\n              jump\t// in\n            tag_40:\n              mload(0x40)\n              dup1\n              swap2\n              sub\n              swap1\n              return\n                /* \"Campaign.sol\":1063:1104  mapping (uint => Request) public requests */\n            tag_7:\n              callvalue\n              dup1\n              iszero\n              tag_42\n              jumpi\n              0x00\n              dup1\n              revert\n            tag_42:\n              pop\n              tag_43\n              0x04\n              dup1\n              calldatasize\n              sub\n              dup2\n              add\n              swap1\n              tag_44\n              swap2\n              swap1\n              tag_18\n              jump\t// in\n            tag_44:\n              tag_45\n              jump\t// in\n            tag_43:\n              mload(0x40)\n              tag_46\n              swap6\n              swap5\n              swap4\n              swap3\n              swap2\n              swap1\n              tag_47\n              jump\t// in\n            tag_46:\n              mload(0x40)\n              dup1\n              swap2\n              sub\n              swap1\n              return\n                /* \"Campaign.sol\":982:1009  uint public numContributers */\n            tag_8:\n              callvalue\n              dup1\n              iszero\n              tag_48\n              jumpi\n              0x00\n              dup1\n              revert\n            tag_48:\n              pop\n              tag_49\n              tag_50\n              jump\t// in\n            tag_49:\n              mload(0x40)\n              tag_51\n              swap2\n              swap1\n              tag_31\n              jump\t// in\n            tag_51:\n              mload(0x40)\n              dup1\n              swap2\n              sub\n              swap1\n              return\n                /* \"Campaign.sol\":1853:2157  function createRequest(string memory desc, uint  val, address recipient) public restricted {... */\n            tag_9:\n              callvalue\n              dup1\n              iszero\n              tag_52\n              jumpi\n              0x00\n              dup1\n              revert\n            tag_52:\n              pop\n              tag_53\n              0x04\n              dup1\n              calldatasize\n              sub\n              dup2\n              add\n              swap1\n              tag_54\n              swap2\n              swap1\n              tag_55\n              jump\t// in\n            tag_54:\n              tag_56\n              jump\t// in\n            tag_53:\n              stop\n                /* \"Campaign.sol\":953:976  uint public numRequests */\n            tag_10:\n              callvalue\n              dup1\n              iszero\n              tag_57\n              jumpi\n              0x00\n              dup1\n              revert\n            tag_57:\n              pop\n              tag_58\n              tag_59\n              jump\t// in\n            tag_58:\n              mload(0x40)\n              tag_60\n              swap2\n              swap1\n              tag_31\n              jump\t// in\n            tag_60:\n              mload(0x40)\n              dup1\n              swap2\n              sub\n              swap1\n              return\n                /* \"Campaign.sol\":919:946  uint public minContribution */\n            tag_11:\n              callvalue\n              dup1\n              iszero\n              tag_61\n              jumpi\n              0x00\n              dup1\n              revert\n            tag_61:\n              pop\n              tag_62\n              tag_63\n              jump\t// in\n            tag_62:\n              mload(0x40)\n              tag_64\n              swap2\n              swap1\n              tag_31\n              jump\t// in\n            tag_64:\n              mload(0x40)\n              dup1\n              swap2\n              sub\n              swap1\n              return\n                /* \"Campaign.sol\":1692:1847  function contribute() public payable {... */\n            tag_12:\n              tag_65\n              tag_66\n              jump\t// in\n            tag_65:\n              stop\n                /* \"Campaign.sol\":2163:2418  function approveRequest(uint reqIndex) public {... */\n            tag_13:\n              callvalue\n              dup1\n              iszero\n              tag_67\n              jumpi\n              0x00\n              dup1\n              revert\n            tag_67:\n              pop\n              tag_68\n              0x04\n              dup1\n              calldatasize\n              sub\n              dup2\n              add\n              swap1\n              tag_69\n              swap2\n              swap1\n              tag_18\n              jump\t// in\n            tag_69:\n              tag_70\n              jump\t// in\n            tag_68:\n              stop\n                /* \"Campaign.sol\":2424:2824  function finalizeRequest(uint reqIndex) public restricted {... */\n            tag_19:\n                /* \"Campaign.sol\":1511:1518  manager */\n              0x00\n              dup1\n              sload\n              swap1\n              0x0100\n              exp\n              swap1\n              div\n              0xffffffffffffffffffffffffffffffffffffffff\n              and\n                /* \"Campaign.sol\":1497:1518  msg.sender == manager */\n              0xffffffffffffffffffffffffffffffffffffffff\n              and\n                /* \"Campaign.sol\":1497:1507  msg.sender */\n              caller\n                /* \"Campaign.sol\":1497:1518  msg.sender == manager */\n              0xffffffffffffffffffffffffffffffffffffffff\n              and\n              eq\n                /* \"Campaign.sol\":1489:1519  require(msg.sender == manager) */\n              tag_72\n              jumpi\n              0x00\n              dup1\n              revert\n            tag_72:\n                /* \"Campaign.sol\":2583:2606  Request storage request */\n              0x00\n                /* \"Campaign.sol\":2609:2617  requests */\n              0x05\n                /* \"Campaign.sol\":2609:2627  requests[reqIndex] */\n              0x00\n                /* \"Campaign.sol\":2618:2626  reqIndex */\n              dup4\n                /* \"Campaign.sol\":2609:2627  requests[reqIndex] */\n              dup2\n              mstore\n              0x20\n              add\n              swap1\n              dup2\n              mstore\n              0x20\n              add\n              0x00\n              keccak256\n                /* \"Campaign.sol\":2583:2627  Request storage request = requests[reqIndex] */\n              swap1\n              pop\n                /* \"Campaign.sol\":2690:2691  2 */\n              0x02\n                /* \"Campaign.sol\":2672:2687  numContributers */\n              sload(0x03)\n                /* \"Campaign.sol\":2672:2691  numContributers / 2 */\n              tag_74\n              swap2\n              swap1\n              tag_75\n              jump\t// in\n            tag_74:\n                /* \"Campaign.sol\":2647:2654  request */\n              dup2\n                /* \"Campaign.sol\":2647:2668  request.approvalCount */\n              0x03\n              add\n              sload\n                /* \"Campaign.sol\":2647:2692  request.approvalCount > (numContributers / 2) */\n              gt\n                /* \"Campaign.sol\":2638:2694  require (request.approvalCount > (numContributers / 2) ) */\n              tag_76\n              jumpi\n              0x00\n              dup1\n              revert\n            tag_76:\n                /* \"Campaign.sol\":2714:2721  request */\n              dup1\n                /* \"Campaign.sol\":2714:2730  request.complete */\n              0x02\n              add\n              0x14\n              swap1\n              sload\n              swap1\n              0x0100\n              exp\n              swap1\n              div\n              0xff\n              and\n                /* \"Campaign.sol\":2713:2730  !request.complete */\n              iszero\n                /* \"Campaign.sol\":2704:2731  require (!request.complete) */\n              tag_77\n              jumpi\n              0x00\n              dup1\n              revert\n            tag_77:\n                /* \"Campaign.sol\":2742:2749  request */\n              dup1\n                /* \"Campaign.sol\":2742:2759  request.recipient */\n              0x02\n              add\n              0x00\n              swap1\n              sload\n              swap1\n              0x0100\n              exp\n              swap1\n              div\n              0xffffffffffffffffffffffffffffffffffffffff\n              and\n                /* \"Campaign.sol\":2742:2768  request.recipient.transfer */\n              0xffffffffffffffffffffffffffffffffffffffff\n              and\n                /* \"Campaign.sol\":2742:2783  request.recipient.transfer(request.value) */\n              0x08fc\n                /* \"Campaign.sol\":2769:2776  request */\n              dup3\n                /* \"Campaign.sol\":2769:2782  request.value */\n              0x01\n              add\n              sload\n                /* \"Campaign.sol\":2742:2783  request.recipient.transfer(request.value) */\n              swap1\n              dup2\n              iszero\n              mul\n              swap1\n              mload(0x40)\n              0x00\n              mload(0x40)\n              dup1\n              dup4\n              sub\n              dup2\n              dup6\n              dup9\n              dup9\n              call\n              swap4\n              pop\n              pop\n              pop\n              pop\n              iszero\n              dup1\n              iszero\n              tag_79\n              jumpi\n              returndatasize\n              0x00\n              dup1\n              returndatacopy\n              revert(0x00, returndatasize)\n            tag_79:\n              pop\n                /* \"Campaign.sol\":2812:2816  true */\n              0x01\n                /* \"Campaign.sol\":2793:2800  request */\n              dup2\n                /* \"Campaign.sol\":2793:2809  request.complete */\n              0x02\n              add\n              0x14\n                /* \"Campaign.sol\":2793:2816  request.complete = true */\n              0x0100\n              exp\n              dup2\n              sload\n              dup2\n              0xff\n              mul\n              not\n              and\n              swap1\n              dup4\n              iszero\n              iszero\n              mul\n              or\n              swap1\n              sstore\n              pop\n                /* \"Campaign.sol\":2482:2824  {... */\n              pop\n                /* \"Campaign.sol\":2424:2824  function finalizeRequest(uint reqIndex) public restricted {... */\n              pop\n              jump\t// out\n                /* \"Campaign.sol\":1016:1057  mapping(address => bool) public approvers */\n            tag_24:\n              mstore(0x20, 0x04)\n              dup1\n              0x00\n              mstore\n              keccak256(0x00, 0x40)\n              0x00\n              swap2\n              pop\n              sload\n              swap1\n              0x0100\n              exp\n              swap1\n              div\n              0xff\n              and\n              dup2\n              jump\t// out\n                /* \"Campaign.sol\":1359:1449  function getRequestsCount() public view returns(uint){... */\n            tag_29:\n                /* \"Campaign.sol\":1407:1411  uint */\n              0x00\n                /* \"Campaign.sol\":1427:1442  numContributers */\n              sload(0x03)\n                /* \"Campaign.sol\":1420:1442  return numContributers */\n              swap1\n              pop\n                /* \"Campaign.sol\":1359:1449  function getRequestsCount() public view returns(uint){... */\n              swap1\n              jump\t// out\n                /* \"Campaign.sol\":1112:1353  function getSummary() public view returns(... */\n            tag_34:\n                /* \"Campaign.sol\":1161:1165  uint */\n              0x00\n                /* \"Campaign.sol\":1167:1171  uint */\n              dup1\n                /* \"Campaign.sol\":1173:1177  uint */\n              0x00\n                /* \"Campaign.sol\":1179:1183  uint */\n              dup1\n                /* \"Campaign.sol\":1185:1192  address */\n              0x00\n                /* \"Campaign.sol\":1227:1242  minContribution */\n              sload(0x01)\n                /* \"Campaign.sol\":1252:1273  address(this).balance */\n              selfbalance\n                /* \"Campaign.sol\":1283:1294  numRequests */\n              sload(0x02)\n                /* \"Campaign.sol\":1304:1319  numContributers */\n              sload(0x03)\n                /* \"Campaign.sol\":1329:1336  manager */\n              0x00\n              dup1\n              sload\n              swap1\n              0x0100\n              exp\n              swap1\n              div\n              0xffffffffffffffffffffffffffffffffffffffff\n              and\n                /* \"Campaign.sol\":1209:1346  return  (... */\n              swap5\n              pop\n              swap5\n              pop\n              swap5\n              pop\n              swap5\n              pop\n              swap5\n              pop\n                /* \"Campaign.sol\":1112:1353  function getSummary() public view returns(... */\n              swap1\n              swap2\n              swap3\n              swap4\n              swap5\n              jump\t// out\n                /* \"Campaign.sol\":883:913  address payable public manager */\n            tag_39:\n              0x00\n              dup1\n              sload\n              swap1\n              0x0100\n              exp\n              swap1\n              div\n              0xffffffffffffffffffffffffffffffffffffffff\n              and\n              dup2\n              jump\t// out\n                /* \"Campaign.sol\":1063:1104  mapping (uint => Request) public requests */\n            tag_45:\n              mstore(0x20, 0x05)\n              dup1\n              0x00\n              mstore\n              keccak256(0x00, 0x40)\n              0x00\n              swap2\n              pop\n              swap1\n              pop\n              dup1\n              0x00\n              add\n              dup1\n              sload\n              tag_82\n              swap1\n              tag_83\n              jump\t// in\n            tag_82:\n              dup1\n              0x1f\n              add\n              0x20\n              dup1\n              swap2\n              div\n              mul\n              0x20\n              add\n              mload(0x40)\n              swap1\n              dup2\n              add\n              0x40\n              mstore\n              dup1\n              swap3\n              swap2\n              swap1\n              dup2\n              dup2\n              mstore\n              0x20\n              add\n              dup3\n              dup1\n              sload\n              tag_84\n              swap1\n              tag_83\n              jump\t// in\n            tag_84:\n              dup1\n              iszero\n              tag_85\n              jumpi\n              dup1\n              0x1f\n              lt\n              tag_86\n              jumpi\n              0x0100\n              dup1\n              dup4\n              sload\n              div\n              mul\n              dup4\n              mstore\n              swap2\n              0x20\n              add\n              swap2\n              jump(tag_85)\n            tag_86:\n              dup3\n              add\n              swap2\n              swap1\n              0x00\n              mstore\n              keccak256(0x00, 0x20)\n              swap1\n            tag_87:\n              dup2\n              sload\n              dup2\n              mstore\n              swap1\n              0x01\n              add\n              swap1\n              0x20\n              add\n              dup1\n              dup4\n              gt\n              tag_87\n              jumpi\n              dup3\n              swap1\n              sub\n              0x1f\n              and\n              dup3\n              add\n              swap2\n            tag_85:\n              pop\n              pop\n              pop\n              pop\n              pop\n              swap1\n              dup1\n              0x01\n              add\n              sload\n              swap1\n              dup1\n              0x02\n              add\n              0x00\n              swap1\n              sload\n              swap1\n              0x0100\n              exp\n              swap1\n              div\n              0xffffffffffffffffffffffffffffffffffffffff\n              and\n              swap1\n              dup1\n              0x02\n              add\n              0x14\n              swap1\n              sload\n              swap1\n              0x0100\n              exp\n              swap1\n              div\n              0xff\n              and\n              swap1\n              dup1\n              0x03\n              add\n              sload\n              swap1\n              pop\n              dup6\n              jump\t// out\n                /* \"Campaign.sol\":982:1009  uint public numContributers */\n            tag_50:\n              sload(0x03)\n              dup2\n              jump\t// out\n                /* \"Campaign.sol\":1853:2157  function createRequest(string memory desc, uint  val, address recipient) public restricted {... */\n            tag_56:\n                /* \"Campaign.sol\":1511:1518  manager */\n              0x00\n              dup1\n              sload\n              swap1\n              0x0100\n              exp\n              swap1\n              div\n              0xffffffffffffffffffffffffffffffffffffffff\n              and\n                /* \"Campaign.sol\":1497:1518  msg.sender == manager */\n              0xffffffffffffffffffffffffffffffffffffffff\n              and\n                /* \"Campaign.sol\":1497:1507  msg.sender */\n              caller\n                /* \"Campaign.sol\":1497:1518  msg.sender == manager */\n              0xffffffffffffffffffffffffffffffffffffffff\n              and\n              eq\n                /* \"Campaign.sol\":1489:1519  require(msg.sender == manager) */\n              tag_89\n              jumpi\n              0x00\n              dup1\n              revert\n            tag_89:\n                /* \"Campaign.sol\":1954:1971  Request storage r */\n              0x00\n                /* \"Campaign.sol\":1974:1982  requests */\n              0x05\n                /* \"Campaign.sol\":1974:1997  requests[numRequests++] */\n              0x00\n                /* \"Campaign.sol\":1983:1994  numRequests */\n              0x02\n              0x00\n                /* \"Campaign.sol\":1983:1996  numRequests++ */\n              dup2\n              sload\n              dup1\n              swap3\n              swap2\n              swap1\n              tag_91\n              swap1\n              tag_92\n              jump\t// in\n            tag_91:\n              swap2\n              swap1\n              pop\n              sstore\n                /* \"Campaign.sol\":1974:1997  requests[numRequests++] */\n              dup2\n              mstore\n              0x20\n              add\n              swap1\n              dup2\n              mstore\n              0x20\n              add\n              0x00\n              keccak256\n                /* \"Campaign.sol\":1954:1997  Request storage r = requests[numRequests++] */\n              swap1\n              pop\n                /* \"Campaign.sol\":2023:2027  desc */\n              dup4\n                /* \"Campaign.sol\":2007:2008  r */\n              dup2\n                /* \"Campaign.sol\":2007:2020  r.description */\n              0x00\n              add\n                /* \"Campaign.sol\":2007:2027  r.description = desc */\n              swap1\n              dup1\n              mload\n              swap1\n              0x20\n              add\n              swap1\n              tag_93\n              swap3\n              swap2\n              swap1\n              tag_94\n              jump\t// in\n            tag_93:\n              pop\n                /* \"Campaign.sol\":2047:2050  val */\n              dup3\n                /* \"Campaign.sol\":2037:2038  r */\n              dup2\n                /* \"Campaign.sol\":2037:2044  r.value */\n              0x01\n              add\n                /* \"Campaign.sol\":2037:2050  r.value = val */\n              dup2\n              swap1\n              sstore\n              pop\n                /* \"Campaign.sol\":2082:2091  recipient */\n              dup2\n                /* \"Campaign.sol\":2060:2061  r */\n              dup2\n                /* \"Campaign.sol\":2060:2071  r.recipient */\n              0x02\n              add\n              0x00\n                /* \"Campaign.sol\":2060:2092  r.recipient = payable(recipient) */\n              0x0100\n              exp\n              dup2\n              sload\n              dup2\n              0xffffffffffffffffffffffffffffffffffffffff\n              mul\n              not\n              and\n              swap1\n              dup4\n              0xffffffffffffffffffffffffffffffffffffffff\n              and\n              mul\n              or\n              swap1\n              sstore\n              pop\n                /* \"Campaign.sol\":2115:2120  false */\n              0x00\n                /* \"Campaign.sol\":2102:2103  r */\n              dup2\n                /* \"Campaign.sol\":2102:2112  r.complete */\n              0x02\n              add\n              0x14\n                /* \"Campaign.sol\":2102:2120  r.complete = false */\n              0x0100\n              exp\n              dup2\n              sload\n              dup2\n              0xff\n              mul\n              not\n              and\n              swap1\n              dup4\n              iszero\n              iszero\n              mul\n              or\n              swap1\n              sstore\n              pop\n                /* \"Campaign.sol\":2148:2149  0 */\n              0x00\n                /* \"Campaign.sol\":2130:2131  r */\n              dup2\n                /* \"Campaign.sol\":2130:2145  r.approvalCount */\n              0x03\n              add\n                /* \"Campaign.sol\":2130:2149  r.approvalCount = 0 */\n              dup2\n              swap1\n              sstore\n              pop\n                /* \"Campaign.sol\":1944:2157  {... */\n              pop\n                /* \"Campaign.sol\":1853:2157  function createRequest(string memory desc, uint  val, address recipient) public restricted {... */\n              pop\n              pop\n              pop\n              jump\t// out\n                /* \"Campaign.sol\":953:976  uint public numRequests */\n            tag_59:\n              sload(0x02)\n              dup2\n              jump\t// out\n                /* \"Campaign.sol\":919:946  uint public minContribution */\n            tag_63:\n              sload(0x01)\n              dup2\n              jump\t// out\n                /* \"Campaign.sol\":1692:1847  function contribute() public payable {... */\n            tag_66:\n                /* \"Campaign.sol\":1759:1774  minContribution */\n              sload(0x01)\n                /* \"Campaign.sol\":1747:1756  msg.value */\n              callvalue\n                /* \"Campaign.sol\":1747:1774  msg.value > minContribution */\n              gt\n                /* \"Campaign.sol\":1739:1775  require(msg.value > minContribution) */\n              tag_96\n              jumpi\n              0x00\n              dup1\n              revert\n            tag_96:\n                /* \"Campaign.sol\":1809:1813  true */\n              0x01\n                /* \"Campaign.sol\":1785:1794  approvers */\n              0x04\n                /* \"Campaign.sol\":1785:1806  approvers[msg.sender] */\n              0x00\n                /* \"Campaign.sol\":1795:1805  msg.sender */\n              caller\n                /* \"Campaign.sol\":1785:1806  approvers[msg.sender] */\n              0xffffffffffffffffffffffffffffffffffffffff\n              and\n              0xffffffffffffffffffffffffffffffffffffffff\n              and\n              dup2\n              mstore\n              0x20\n              add\n              swap1\n              dup2\n              mstore\n              0x20\n              add\n              0x00\n              keccak256\n              0x00\n                /* \"Campaign.sol\":1785:1813  approvers[msg.sender] = true */\n              0x0100\n              exp\n              dup2\n              sload\n              dup2\n              0xff\n              mul\n              not\n              and\n              swap1\n              dup4\n              iszero\n              iszero\n              mul\n              or\n              swap1\n              sstore\n              pop\n                /* \"Campaign.sol\":1823:1838  numContributers */\n              0x03\n              0x00\n                /* \"Campaign.sol\":1823:1840  numContributers++ */\n              dup2\n              sload\n              dup1\n              swap3\n              swap2\n              swap1\n              tag_97\n              swap1\n              tag_92\n              jump\t// in\n            tag_97:\n              swap2\n              swap1\n              pop\n              sstore\n              pop\n                /* \"Campaign.sol\":1692:1847  function contribute() public payable {... */\n              jump\t// out\n                /* \"Campaign.sol\":2163:2418  function approveRequest(uint reqIndex) public {... */\n            tag_70:\n                /* \"Campaign.sol\":2227:2236  approvers */\n              0x04\n                /* \"Campaign.sol\":2227:2248  approvers[msg.sender] */\n              0x00\n                /* \"Campaign.sol\":2237:2247  msg.sender */\n              caller\n                /* \"Campaign.sol\":2227:2248  approvers[msg.sender] */\n              0xffffffffffffffffffffffffffffffffffffffff\n              and\n              0xffffffffffffffffffffffffffffffffffffffff\n              and\n              dup2\n              mstore\n              0x20\n              add\n              swap1\n              dup2\n              mstore\n              0x20\n              add\n              0x00\n              keccak256\n              0x00\n              swap1\n              sload\n              swap1\n              0x0100\n              exp\n              swap1\n              div\n              0xff\n              and\n                /* \"Campaign.sol\":2219:2249  require(approvers[msg.sender]) */\n              tag_99\n              jumpi\n              0x00\n              dup1\n              revert\n            tag_99:\n                /* \"Campaign.sol\":2268:2276  requests */\n              0x05\n                /* \"Campaign.sol\":2268:2286  requests[reqIndex] */\n              0x00\n                /* \"Campaign.sol\":2277:2285  reqIndex */\n              dup3\n                /* \"Campaign.sol\":2268:2286  requests[reqIndex] */\n              dup2\n              mstore\n              0x20\n              add\n              swap1\n              dup2\n              mstore\n              0x20\n              add\n              0x00\n              keccak256\n                /* \"Campaign.sol\":2268:2296  requests[reqIndex].approvals */\n              0x04\n              add\n                /* \"Campaign.sol\":2268:2308  requests[reqIndex].approvals[msg.sender] */\n              0x00\n                /* \"Campaign.sol\":2297:2307  msg.sender */\n              caller\n                /* \"Campaign.sol\":2268:2308  requests[reqIndex].approvals[msg.sender] */\n              0xffffffffffffffffffffffffffffffffffffffff\n              and\n              0xffffffffffffffffffffffffffffffffffffffff\n              and\n              dup2\n              mstore\n              0x20\n              add\n              swap1\n              dup2\n              mstore\n              0x20\n              add\n              0x00\n              keccak256\n              0x00\n              swap1\n              sload\n              swap1\n              0x0100\n              exp\n              swap1\n              div\n              0xff\n              and\n                /* \"Campaign.sol\":2267:2308  !requests[reqIndex].approvals[msg.sender] */\n              iszero\n                /* \"Campaign.sol\":2259:2309  require(!requests[reqIndex].approvals[msg.sender]) */\n              tag_100\n              jumpi\n              0x00\n              dup1\n              revert\n            tag_100:\n                /* \"Campaign.sol\":2363:2367  true */\n              0x01\n                /* \"Campaign.sol\":2320:2328  requests */\n              0x05\n                /* \"Campaign.sol\":2320:2338  requests[reqIndex] */\n              0x00\n                /* \"Campaign.sol\":2329:2337  reqIndex */\n              dup4\n                /* \"Campaign.sol\":2320:2338  requests[reqIndex] */\n              dup2\n              mstore\n              0x20\n              add\n              swap1\n              dup2\n              mstore\n              0x20\n              add\n              0x00\n              keccak256\n                /* \"Campaign.sol\":2320:2348  requests[reqIndex].approvals */\n              0x04\n              add\n                /* \"Campaign.sol\":2320:2360  requests[reqIndex].approvals[msg.sender] */\n              0x00\n                /* \"Campaign.sol\":2349:2359  msg.sender */\n              caller\n                /* \"Campaign.sol\":2320:2360  requests[reqIndex].approvals[msg.sender] */\n              0xffffffffffffffffffffffffffffffffffffffff\n              and\n              0xffffffffffffffffffffffffffffffffffffffff\n              and\n              dup2\n              mstore\n              0x20\n              add\n              swap1\n              dup2\n              mstore\n              0x20\n              add\n              0x00\n              keccak256\n              0x00\n                /* \"Campaign.sol\":2320:2367  requests[reqIndex].approvals[msg.sender] = true */\n              0x0100\n              exp\n              dup2\n              sload\n              dup2\n              0xff\n              mul\n              not\n              and\n              swap1\n              dup4\n              iszero\n              iszero\n              mul\n              or\n              swap1\n              sstore\n              pop\n                /* \"Campaign.sol\":2377:2385  requests */\n              0x05\n                /* \"Campaign.sol\":2377:2395  requests[reqIndex] */\n              0x00\n                /* \"Campaign.sol\":2386:2394  reqIndex */\n              dup3\n                /* \"Campaign.sol\":2377:2395  requests[reqIndex] */\n              dup2\n              mstore\n              0x20\n              add\n              swap1\n              dup2\n              mstore\n              0x20\n              add\n              0x00\n              keccak256\n                /* \"Campaign.sol\":2377:2409  requests[reqIndex].approvalCount */\n              0x03\n              add\n              0x00\n                /* \"Campaign.sol\":2377:2411  requests[reqIndex].approvalCount++ */\n              dup2\n              sload\n              dup1\n              swap3\n              swap2\n              swap1\n              tag_101\n              swap1\n              tag_92\n              jump\t// in\n            tag_101:\n              swap2\n              swap1\n              pop\n              sstore\n              pop\n                /* \"Campaign.sol\":2163:2418  function approveRequest(uint reqIndex) public {... */\n              pop\n              jump\t// out\n            tag_94:\n              dup3\n              dup1\n              sload\n              tag_102\n              swap1\n              tag_83\n              jump\t// in\n            tag_102:\n              swap1\n              0x00\n              mstore\n              keccak256(0x00, 0x20)\n              swap1\n              0x1f\n              add\n              0x20\n              swap1\n              div\n              dup2\n              add\n              swap3\n              dup3\n              tag_104\n              jumpi\n              0x00\n              dup6\n              sstore\n              jump(tag_103)\n            tag_104:\n              dup3\n              0x1f\n              lt\n              tag_105\n              jumpi\n              dup1\n              mload\n              not(0xff)\n              and\n              dup4\n              dup1\n              add\n              or\n              dup6\n              sstore\n              jump(tag_103)\n            tag_105:\n              dup3\n              dup1\n              add\n              0x01\n              add\n              dup6\n              sstore\n              dup3\n              iszero\n              tag_103\n              jumpi\n              swap2\n              dup3\n              add\n            tag_106:\n              dup3\n              dup2\n              gt\n              iszero\n              tag_107\n              jumpi\n              dup3\n              mload\n              dup3\n              sstore\n              swap2\n              0x20\n              add\n              swap2\n              swap1\n              0x01\n              add\n              swap1\n              jump(tag_106)\n            tag_107:\n            tag_103:\n              pop\n              swap1\n              pop\n              tag_108\n              swap2\n              swap1\n              tag_109\n              jump\t// in\n            tag_108:\n              pop\n              swap1\n              jump\t// out\n            tag_109:\n            tag_110:\n              dup1\n              dup3\n              gt\n              iszero\n              tag_111\n              jumpi\n              0x00\n              dup2\n              0x00\n              swap1\n              sstore\n              pop\n              0x01\n              add\n              jump(tag_110)\n            tag_111:\n              pop\n              swap1\n              jump\t// out\n                /* \"#utility.yul\":7:82   */\n            tag_112:\n                /* \"#utility.yul\":40:46   */\n              0x00\n                /* \"#utility.yul\":73:75   */\n              0x40\n                /* \"#utility.yul\":67:76   */\n              mload\n                /* \"#utility.yul\":57:76   */\n              swap1\n              pop\n                /* \"#utility.yul\":7:82   */\n              swap1\n              jump\t// out\n                /* \"#utility.yul\":88:205   */\n            tag_113:\n                /* \"#utility.yul\":197:198   */\n              0x00\n                /* \"#utility.yul\":194:195   */\n              dup1\n                /* \"#utility.yul\":187:199   */\n              revert\n                /* \"#utility.yul\":211:328   */\n            tag_114:\n                /* \"#utility.yul\":320:321   */\n              0x00\n                /* \"#utility.yul\":317:318   */\n              dup1\n                /* \"#utility.yul\":310:322   */\n              revert\n                /* \"#utility.yul\":334:411   */\n            tag_115:\n                /* \"#utility.yul\":371:378   */\n              0x00\n                /* \"#utility.yul\":400:405   */\n              dup2\n                /* \"#utility.yul\":389:405   */\n              swap1\n              pop\n                /* \"#utility.yul\":334:411   */\n              swap2\n              swap1\n              pop\n              jump\t// out\n                /* \"#utility.yul\":417:539   */\n            tag_116:\n                /* \"#utility.yul\":490:514   */\n              tag_151\n                /* \"#utility.yul\":508:513   */\n              dup2\n                /* \"#utility.yul\":490:514   */\n              tag_115\n              jump\t// in\n            tag_151:\n                /* \"#utility.yul\":483:488   */\n              dup2\n                /* \"#utility.yul\":480:515   */\n              eq\n                /* \"#utility.yul\":470:533   */\n              tag_152\n              jumpi\n                /* \"#utility.yul\":529:530   */\n              0x00\n                /* \"#utility.yul\":526:527   */\n              dup1\n                /* \"#utility.yul\":519:531   */\n              revert\n                /* \"#utility.yul\":470:533   */\n            tag_152:\n                /* \"#utility.yul\":417:539   */\n              pop\n              jump\t// out\n                /* \"#utility.yul\":545:684   */\n            tag_117:\n                /* \"#utility.yul\":591:596   */\n              0x00\n                /* \"#utility.yul\":629:635   */\n              dup2\n                /* \"#utility.yul\":616:636   */\n              calldataload\n                /* \"#utility.yul\":607:636   */\n              swap1\n              pop\n                /* \"#utility.yul\":645:678   */\n              tag_154\n                /* \"#utility.yul\":672:677   */\n              dup2\n                /* \"#utility.yul\":645:678   */\n              tag_116\n              jump\t// in\n            tag_154:\n                /* \"#utility.yul\":545:684   */\n              swap3\n              swap2\n              pop\n              pop\n              jump\t// out\n                /* \"#utility.yul\":690:1019   */\n            tag_18:\n                /* \"#utility.yul\":749:755   */\n              0x00\n                /* \"#utility.yul\":798:800   */\n              0x20\n                /* \"#utility.yul\":786:795   */\n              dup3\n                /* \"#utility.yul\":777:784   */\n              dup5\n                /* \"#utility.yul\":773:796   */\n              sub\n                /* \"#utility.yul\":769:801   */\n              slt\n                /* \"#utility.yul\":766:885   */\n              iszero\n              tag_156\n              jumpi\n                /* \"#utility.yul\":804:883   */\n              tag_157\n              tag_113\n              jump\t// in\n            tag_157:\n                /* \"#utility.yul\":766:885   */\n            tag_156:\n                /* \"#utility.yul\":924:925   */\n              0x00\n                /* \"#utility.yul\":949:1002   */\n              tag_158\n                /* \"#utility.yul\":994:1001   */\n              dup5\n                /* \"#utility.yul\":985:991   */\n              dup3\n                /* \"#utility.yul\":974:983   */\n              dup6\n                /* \"#utility.yul\":970:992   */\n              add\n                /* \"#utility.yul\":949:1002   */\n              tag_117\n              jump\t// in\n            tag_158:\n                /* \"#utility.yul\":939:1002   */\n              swap2\n              pop\n                /* \"#utility.yul\":895:1012   */\n              pop\n                /* \"#utility.yul\":690:1019   */\n              swap3\n              swap2\n              pop\n              pop\n              jump\t// out\n                /* \"#utility.yul\":1025:1151   */\n            tag_118:\n                /* \"#utility.yul\":1062:1069   */\n              0x00\n                /* \"#utility.yul\":1102:1144   */\n              0xffffffffffffffffffffffffffffffffffffffff\n                /* \"#utility.yul\":1095:1100   */\n              dup3\n                /* \"#utility.yul\":1091:1145   */\n              and\n                /* \"#utility.yul\":1080:1145   */\n              swap1\n              pop\n                /* \"#utility.yul\":1025:1151   */\n              swap2\n              swap1\n              pop\n              jump\t// out\n                /* \"#utility.yul\":1157:1253   */\n            tag_119:\n                /* \"#utility.yul\":1194:1201   */\n              0x00\n                /* \"#utility.yul\":1223:1247   */\n              tag_161\n                /* \"#utility.yul\":1241:1246   */\n              dup3\n                /* \"#utility.yul\":1223:1247   */\n              tag_118\n              jump\t// in\n            tag_161:\n                /* \"#utility.yul\":1212:1247   */\n              swap1\n              pop\n                /* \"#utility.yul\":1157:1253   */\n              swap2\n              swap1\n              pop\n              jump\t// out\n                /* \"#utility.yul\":1259:1381   */\n            tag_120:\n                /* \"#utility.yul\":1332:1356   */\n              tag_163\n                /* \"#utility.yul\":1350:1355   */\n              dup2\n                /* \"#utility.yul\":1332:1356   */\n              tag_119\n              jump\t// in\n            tag_163:\n                /* \"#utility.yul\":1325:1330   */\n              dup2\n                /* \"#utility.yul\":1322:1357   */\n              eq\n                /* \"#utility.yul\":1312:1375   */\n              tag_164\n              jumpi\n                /* \"#utility.yul\":1371:1372   */\n              0x00\n                /* \"#utility.yul\":1368:1369   */\n              dup1\n                /* \"#utility.yul\":1361:1373   */\n              revert\n                /* \"#utility.yul\":1312:1375   */\n            tag_164:\n                /* \"#utility.yul\":1259:1381   */\n              pop\n              jump\t// out\n                /* \"#utility.yul\":1387:1526   */\n            tag_121:\n                /* \"#utility.yul\":1433:1438   */\n              0x00\n                /* \"#utility.yul\":1471:1477   */\n              dup2\n                /* \"#utility.yul\":1458:1478   */\n              calldataload\n                /* \"#utility.yul\":1449:1478   */\n              swap1\n              pop\n                /* \"#utility.yul\":1487:1520   */\n              tag_166\n                /* \"#utility.yul\":1514:1519   */\n              dup2\n                /* \"#utility.yul\":1487:1520   */\n              tag_120\n              jump\t// in\n            tag_166:\n                /* \"#utility.yul\":1387:1526   */\n              swap3\n              swap2\n              pop\n              pop\n              jump\t// out\n                /* \"#utility.yul\":1532:1861   */\n            tag_23:\n                /* \"#utility.yul\":1591:1597   */\n              0x00\n                /* \"#utility.yul\":1640:1642   */\n              0x20\n                /* \"#utility.yul\":1628:1637   */\n              dup3\n                /* \"#utility.yul\":1619:1626   */\n              dup5\n                /* \"#utility.yul\":1615:1638   */\n              sub\n                /* \"#utility.yul\":1611:1643   */\n              slt\n                /* \"#utility.yul\":1608:1727   */\n              iszero\n              tag_168\n              jumpi\n                /* \"#utility.yul\":1646:1725   */\n              tag_169\n              tag_113\n              jump\t// in\n            tag_169:\n                /* \"#utility.yul\":1608:1727   */\n            tag_168:\n                /* \"#utility.yul\":1766:1767   */\n              0x00\n                /* \"#utility.yul\":1791:1844   */\n              tag_170\n                /* \"#utility.yul\":1836:1843   */\n              dup5\n                /* \"#utility.yul\":1827:1833   */\n              dup3\n                /* \"#utility.yul\":1816:1825   */\n              dup6\n                /* \"#utility.yul\":1812:1834   */\n              add\n                /* \"#utility.yul\":1791:1844   */\n              tag_121\n              jump\t// in\n            tag_170:\n                /* \"#utility.yul\":1781:1844   */\n              swap2\n              pop\n                /* \"#utility.yul\":1737:1854   */\n              pop\n                /* \"#utility.yul\":1532:1861   */\n              swap3\n              swap2\n              pop\n              pop\n              jump\t// out\n                /* \"#utility.yul\":1867:1957   */\n            tag_122:\n                /* \"#utility.yul\":1901:1908   */\n              0x00\n                /* \"#utility.yul\":1944:1949   */\n              dup2\n                /* \"#utility.yul\":1937:1950   */\n              iszero\n                /* \"#utility.yul\":1930:1951   */\n              iszero\n                /* \"#utility.yul\":1919:1951   */\n              swap1\n              pop\n                /* \"#utility.yul\":1867:1957   */\n              swap2\n              swap1\n              pop\n              jump\t// out\n                /* \"#utility.yul\":1963:2072   */\n            tag_123:\n                /* \"#utility.yul\":2044:2065   */\n              tag_173\n                /* \"#utility.yul\":2059:2064   */\n              dup2\n                /* \"#utility.yul\":2044:2065   */\n              tag_122\n              jump\t// in\n            tag_173:\n                /* \"#utility.yul\":2039:2042   */\n              dup3\n                /* \"#utility.yul\":2032:2066   */\n              mstore\n                /* \"#utility.yul\":1963:2072   */\n              pop\n              pop\n              jump\t// out\n                /* \"#utility.yul\":2078:2288   */\n            tag_26:\n                /* \"#utility.yul\":2165:2169   */\n              0x00\n                /* \"#utility.yul\":2203:2205   */\n              0x20\n                /* \"#utility.yul\":2192:2201   */\n              dup3\n                /* \"#utility.yul\":2188:2206   */\n              add\n                /* \"#utility.yul\":2180:2206   */\n              swap1\n              pop\n                /* \"#utility.yul\":2216:2281   */\n              tag_175\n                /* \"#utility.yul\":2278:2279   */\n              0x00\n                /* \"#utility.yul\":2267:2276   */\n              dup4\n                /* \"#utility.yul\":2263:2280   */\n              add\n                /* \"#utility.yul\":2254:2260   */\n              dup5\n                /* \"#utility.yul\":2216:2281   */\n              tag_123\n              jump\t// in\n            tag_175:\n                /* \"#utility.yul\":2078:2288   */\n              swap3\n              swap2\n              pop\n              pop\n              jump\t// out\n                /* \"#utility.yul\":2294:2412   */\n            tag_124:\n                /* \"#utility.yul\":2381:2405   */\n              tag_177\n                /* \"#utility.yul\":2399:2404   */\n              dup2\n                /* \"#utility.yul\":2381:2405   */\n              tag_115\n              jump\t// in\n            tag_177:\n                /* \"#utility.yul\":2376:2379   */\n              dup3\n                /* \"#utility.yul\":2369:2406   */\n              mstore\n                /* \"#utility.yul\":2294:2412   */\n              pop\n              pop\n              jump\t// out\n                /* \"#utility.yul\":2418:2640   */\n            tag_31:\n                /* \"#utility.yul\":2511:2515   */\n              0x00\n                /* \"#utility.yul\":2549:2551   */\n              0x20\n                /* \"#utility.yul\":2538:2547   */\n              dup3\n                /* \"#utility.yul\":2534:2552   */\n              add\n                /* \"#utility.yul\":2526:2552   */\n              swap1\n              pop\n                /* \"#utility.yul\":2562:2633   */\n              tag_179\n                /* \"#utility.yul\":2630:2631   */\n              0x00\n                /* \"#utility.yul\":2619:2628   */\n              dup4\n                /* \"#utility.yul\":2615:2632   */\n              add\n                /* \"#utility.yul\":2606:2612   */\n              dup5\n                /* \"#utility.yul\":2562:2633   */\n              tag_124\n              jump\t// in\n            tag_179:\n                /* \"#utility.yul\":2418:2640   */\n              swap3\n              swap2\n              pop\n              pop\n              jump\t// out\n                /* \"#utility.yul\":2646:2764   */\n            tag_125:\n                /* \"#utility.yul\":2733:2757   */\n              tag_181\n                /* \"#utility.yul\":2751:2756   */\n              dup2\n                /* \"#utility.yul\":2733:2757   */\n              tag_119\n              jump\t// in\n            tag_181:\n                /* \"#utility.yul\":2728:2731   */\n              dup3\n                /* \"#utility.yul\":2721:2758   */\n              mstore\n                /* \"#utility.yul\":2646:2764   */\n              pop\n              pop\n              jump\t// out\n                /* \"#utility.yul\":2770:3434   */\n            tag_36:\n                /* \"#utility.yul\":2975:2979   */\n              0x00\n                /* \"#utility.yul\":3013:3016   */\n              0xa0\n                /* \"#utility.yul\":3002:3011   */\n              dup3\n                /* \"#utility.yul\":2998:3017   */\n              add\n                /* \"#utility.yul\":2990:3017   */\n              swap1\n              pop\n                /* \"#utility.yul\":3027:3098   */\n              tag_183\n                /* \"#utility.yul\":3095:3096   */\n              0x00\n                /* \"#utility.yul\":3084:3093   */\n              dup4\n                /* \"#utility.yul\":3080:3097   */\n              add\n                /* \"#utility.yul\":3071:3077   */\n              dup9\n                /* \"#utility.yul\":3027:3098   */\n              tag_124\n              jump\t// in\n            tag_183:\n                /* \"#utility.yul\":3108:3180   */\n              tag_184\n                /* \"#utility.yul\":3176:3178   */\n              0x20\n                /* \"#utility.yul\":3165:3174   */\n              dup4\n                /* \"#utility.yul\":3161:3179   */\n              add\n                /* \"#utility.yul\":3152:3158   */\n              dup8\n                /* \"#utility.yul\":3108:3180   */\n              tag_124\n              jump\t// in\n            tag_184:\n                /* \"#utility.yul\":3190:3262   */\n              tag_185\n                /* \"#utility.yul\":3258:3260   */\n              0x40\n                /* \"#utility.yul\":3247:3256   */\n              dup4\n                /* \"#utility.yul\":3243:3261   */\n              add\n                /* \"#utility.yul\":3234:3240   */\n              dup7\n                /* \"#utility.yul\":3190:3262   */\n              tag_124\n              jump\t// in\n            tag_185:\n                /* \"#utility.yul\":3272:3344   */\n              tag_186\n                /* \"#utility.yul\":3340:3342   */\n              0x60\n                /* \"#utility.yul\":3329:3338   */\n              dup4\n                /* \"#utility.yul\":3325:3343   */\n              add\n                /* \"#utility.yul\":3316:3322   */\n              dup6\n                /* \"#utility.yul\":3272:3344   */\n              tag_124\n              jump\t// in\n            tag_186:\n                /* \"#utility.yul\":3354:3427   */\n              tag_187\n                /* \"#utility.yul\":3422:3425   */\n              0x80\n                /* \"#utility.yul\":3411:3420   */\n              dup4\n                /* \"#utility.yul\":3407:3426   */\n              add\n                /* \"#utility.yul\":3398:3404   */\n              dup5\n                /* \"#utility.yul\":3354:3427   */\n              tag_125\n              jump\t// in\n            tag_187:\n                /* \"#utility.yul\":2770:3434   */\n              swap7\n              swap6\n              pop\n              pop\n              pop\n              pop\n              pop\n              pop\n              jump\t// out\n                /* \"#utility.yul\":3440:3544   */\n            tag_126:\n                /* \"#utility.yul\":3485:3492   */\n              0x00\n                /* \"#utility.yul\":3514:3538   */\n              tag_189\n                /* \"#utility.yul\":3532:3537   */\n              dup3\n                /* \"#utility.yul\":3514:3538   */\n              tag_118\n              jump\t// in\n            tag_189:\n                /* \"#utility.yul\":3503:3538   */\n              swap1\n              pop\n                /* \"#utility.yul\":3440:3544   */\n              swap2\n              swap1\n              pop\n              jump\t// out\n                /* \"#utility.yul\":3550:3692   */\n            tag_127:\n                /* \"#utility.yul\":3653:3685   */\n              tag_191\n                /* \"#utility.yul\":3679:3684   */\n              dup2\n                /* \"#utility.yul\":3653:3685   */\n              tag_126\n              jump\t// in\n            tag_191:\n                /* \"#utility.yul\":3648:3651   */\n              dup3\n                /* \"#utility.yul\":3641:3686   */\n              mstore\n                /* \"#utility.yul\":3550:3692   */\n              pop\n              pop\n              jump\t// out\n                /* \"#utility.yul\":3698:3952   */\n            tag_41:\n                /* \"#utility.yul\":3807:3811   */\n              0x00\n                /* \"#utility.yul\":3845:3847   */\n              0x20\n                /* \"#utility.yul\":3834:3843   */\n              dup3\n                /* \"#utility.yul\":3830:3848   */\n              add\n                /* \"#utility.yul\":3822:3848   */\n              swap1\n              pop\n                /* \"#utility.yul\":3858:3945   */\n              tag_193\n                /* \"#utility.yul\":3942:3943   */\n              0x00\n                /* \"#utility.yul\":3931:3940   */\n              dup4\n                /* \"#utility.yul\":3927:3944   */\n              add\n                /* \"#utility.yul\":3918:3924   */\n              dup5\n                /* \"#utility.yul\":3858:3945   */\n              tag_127\n              jump\t// in\n            tag_193:\n                /* \"#utility.yul\":3698:3952   */\n              swap3\n              swap2\n              pop\n              pop\n              jump\t// out\n                /* \"#utility.yul\":3958:4057   */\n            tag_128:\n                /* \"#utility.yul\":4010:4016   */\n              0x00\n                /* \"#utility.yul\":4044:4049   */\n              dup2\n                /* \"#utility.yul\":4038:4050   */\n              mload\n                /* \"#utility.yul\":4028:4050   */\n              swap1\n              pop\n                /* \"#utility.yul\":3958:4057   */\n              swap2\n              swap1\n              pop\n              jump\t// out\n                /* \"#utility.yul\":4063:4232   */\n            tag_129:\n                /* \"#utility.yul\":4147:4158   */\n              0x00\n                /* \"#utility.yul\":4181:4187   */\n              dup3\n                /* \"#utility.yul\":4176:4179   */\n              dup3\n                /* \"#utility.yul\":4169:4188   */\n              mstore\n                /* \"#utility.yul\":4221:4225   */\n              0x20\n                /* \"#utility.yul\":4216:4219   */\n              dup3\n                /* \"#utility.yul\":4212:4226   */\n              add\n                /* \"#utility.yul\":4197:4226   */\n              swap1\n              pop\n                /* \"#utility.yul\":4063:4232   */\n              swap3\n              swap2\n              pop\n              pop\n              jump\t// out\n                /* \"#utility.yul\":4238:4545   */\n            tag_130:\n                /* \"#utility.yul\":4306:4307   */\n              0x00\n                /* \"#utility.yul\":4316:4429   */\n            tag_197:\n                /* \"#utility.yul\":4330:4336   */\n              dup4\n                /* \"#utility.yul\":4327:4328   */\n              dup2\n                /* \"#utility.yul\":4324:4337   */\n              lt\n                /* \"#utility.yul\":4316:4429   */\n              iszero\n              tag_199\n              jumpi\n                /* \"#utility.yul\":4415:4416   */\n              dup1\n                /* \"#utility.yul\":4410:4413   */\n              dup3\n                /* \"#utility.yul\":4406:4417   */\n              add\n                /* \"#utility.yul\":4400:4418   */\n              mload\n                /* \"#utility.yul\":4396:4397   */\n              dup2\n                /* \"#utility.yul\":4391:4394   */\n              dup5\n                /* \"#utility.yul\":4387:4398   */\n              add\n                /* \"#utility.yul\":4380:4419   */\n              mstore\n                /* \"#utility.yul\":4352:4354   */\n              0x20\n                /* \"#utility.yul\":4349:4350   */\n              dup2\n                /* \"#utility.yul\":4345:4355   */\n              add\n                /* \"#utility.yul\":4340:4355   */\n              swap1\n              pop\n                /* \"#utility.yul\":4316:4429   */\n              jump(tag_197)\n            tag_199:\n                /* \"#utility.yul\":4447:4453   */\n              dup4\n                /* \"#utility.yul\":4444:4445   */\n              dup2\n                /* \"#utility.yul\":4441:4454   */\n              gt\n                /* \"#utility.yul\":4438:4539   */\n              iszero\n              tag_200\n              jumpi\n                /* \"#utility.yul\":4527:4528   */\n              0x00\n                /* \"#utility.yul\":4518:4524   */\n              dup5\n                /* \"#utility.yul\":4513:4516   */\n              dup5\n                /* \"#utility.yul\":4509:4525   */\n              add\n                /* \"#utility.yul\":4502:4529   */\n              mstore\n                /* \"#utility.yul\":4438:4539   */\n            tag_200:\n                /* \"#utility.yul\":4287:4545   */\n              pop\n                /* \"#utility.yul\":4238:4545   */\n              pop\n              pop\n              pop\n              jump\t// out\n                /* \"#utility.yul\":4551:4653   */\n            tag_131:\n                /* \"#utility.yul\":4592:4598   */\n              0x00\n                /* \"#utility.yul\":4643:4645   */\n              0x1f\n                /* \"#utility.yul\":4639:4646   */\n              not\n                /* \"#utility.yul\":4634:4636   */\n              0x1f\n                /* \"#utility.yul\":4627:4632   */\n              dup4\n                /* \"#utility.yul\":4623:4637   */\n              add\n                /* \"#utility.yul\":4619:4647   */\n              and\n                /* \"#utility.yul\":4609:4647   */\n              swap1\n              pop\n                /* \"#utility.yul\":4551:4653   */\n              swap2\n              swap1\n              pop\n              jump\t// out\n                /* \"#utility.yul\":4659:5023   */\n            tag_132:\n                /* \"#utility.yul\":4747:4750   */\n              0x00\n                /* \"#utility.yul\":4775:4814   */\n              tag_203\n                /* \"#utility.yul\":4808:4813   */\n              dup3\n                /* \"#utility.yul\":4775:4814   */\n              tag_128\n              jump\t// in\n            tag_203:\n                /* \"#utility.yul\":4830:4901   */\n              tag_204\n                /* \"#utility.yul\":4894:4900   */\n              dup2\n                /* \"#utility.yul\":4889:4892   */\n              dup6\n                /* \"#utility.yul\":4830:4901   */\n              tag_129\n              jump\t// in\n            tag_204:\n                /* \"#utility.yul\":4823:4901   */\n              swap4\n              pop\n                /* \"#utility.yul\":4910:4962   */\n              tag_205\n                /* \"#utility.yul\":4955:4961   */\n              dup2\n                /* \"#utility.yul\":4950:4953   */\n              dup6\n                /* \"#utility.yul\":4943:4947   */\n              0x20\n                /* \"#utility.yul\":4936:4941   */\n              dup7\n                /* \"#utility.yul\":4932:4948   */\n              add\n                /* \"#utility.yul\":4910:4962   */\n              tag_130\n              jump\t// in\n            tag_205:\n                /* \"#utility.yul\":4987:5016   */\n              tag_206\n                /* \"#utility.yul\":5009:5015   */\n              dup2\n                /* \"#utility.yul\":4987:5016   */\n              tag_131\n              jump\t// in\n            tag_206:\n                /* \"#utility.yul\":4982:4985   */\n              dup5\n                /* \"#utility.yul\":4978:5017   */\n              add\n                /* \"#utility.yul\":4971:5017   */\n              swap2\n              pop\n                /* \"#utility.yul\":4751:5023   */\n              pop\n                /* \"#utility.yul\":4659:5023   */\n              swap3\n              swap2\n              pop\n              pop\n              jump\t// out\n                /* \"#utility.yul\":5029:5804   */\n            tag_47:\n                /* \"#utility.yul\":5264:5268   */\n              0x00\n                /* \"#utility.yul\":5302:5305   */\n              0xa0\n                /* \"#utility.yul\":5291:5300   */\n              dup3\n                /* \"#utility.yul\":5287:5306   */\n              add\n                /* \"#utility.yul\":5279:5306   */\n              swap1\n              pop\n                /* \"#utility.yul\":5352:5361   */\n              dup2\n                /* \"#utility.yul\":5346:5350   */\n              dup2\n                /* \"#utility.yul\":5342:5362   */\n              sub\n                /* \"#utility.yul\":5338:5339   */\n              0x00\n                /* \"#utility.yul\":5327:5336   */\n              dup4\n                /* \"#utility.yul\":5323:5340   */\n              add\n                /* \"#utility.yul\":5316:5363   */\n              mstore\n                /* \"#utility.yul\":5380:5458   */\n              tag_208\n                /* \"#utility.yul\":5453:5457   */\n              dup2\n                /* \"#utility.yul\":5444:5450   */\n              dup9\n                /* \"#utility.yul\":5380:5458   */\n              tag_132\n              jump\t// in\n            tag_208:\n                /* \"#utility.yul\":5372:5458   */\n              swap1\n              pop\n                /* \"#utility.yul\":5468:5540   */\n              tag_209\n                /* \"#utility.yul\":5536:5538   */\n              0x20\n                /* \"#utility.yul\":5525:5534   */\n              dup4\n                /* \"#utility.yul\":5521:5539   */\n              add\n                /* \"#utility.yul\":5512:5518   */\n              dup8\n                /* \"#utility.yul\":5468:5540   */\n              tag_124\n              jump\t// in\n            tag_209:\n                /* \"#utility.yul\":5550:5638   */\n              tag_210\n                /* \"#utility.yul\":5634:5636   */\n              0x40\n                /* \"#utility.yul\":5623:5632   */\n              dup4\n                /* \"#utility.yul\":5619:5637   */\n              add\n                /* \"#utility.yul\":5610:5616   */\n              dup7\n                /* \"#utility.yul\":5550:5638   */\n              tag_127\n              jump\t// in\n            tag_210:\n                /* \"#utility.yul\":5648:5714   */\n              tag_211\n                /* \"#utility.yul\":5710:5712   */\n              0x60\n                /* \"#utility.yul\":5699:5708   */\n              dup4\n                /* \"#utility.yul\":5695:5713   */\n              add\n                /* \"#utility.yul\":5686:5692   */\n              dup6\n                /* \"#utility.yul\":5648:5714   */\n              tag_123\n              jump\t// in\n            tag_211:\n                /* \"#utility.yul\":5724:5797   */\n              tag_212\n                /* \"#utility.yul\":5792:5795   */\n              0x80\n                /* \"#utility.yul\":5781:5790   */\n              dup4\n                /* \"#utility.yul\":5777:5796   */\n              add\n                /* \"#utility.yul\":5768:5774   */\n              dup5\n                /* \"#utility.yul\":5724:5797   */\n              tag_124\n              jump\t// in\n            tag_212:\n                /* \"#utility.yul\":5029:5804   */\n              swap7\n              swap6\n              pop\n              pop\n              pop\n              pop\n              pop\n              pop\n              jump\t// out\n                /* \"#utility.yul\":5810:5927   */\n            tag_133:\n                /* \"#utility.yul\":5919:5920   */\n              0x00\n                /* \"#utility.yul\":5916:5917   */\n              dup1\n                /* \"#utility.yul\":5909:5921   */\n              revert\n                /* \"#utility.yul\":5933:6050   */\n            tag_134:\n                /* \"#utility.yul\":6042:6043   */\n              0x00\n                /* \"#utility.yul\":6039:6040   */\n              dup1\n                /* \"#utility.yul\":6032:6044   */\n              revert\n                /* \"#utility.yul\":6056:6236   */\n            tag_135:\n                /* \"#utility.yul\":6104:6181   */\n              0x4e487b7100000000000000000000000000000000000000000000000000000000\n                /* \"#utility.yul\":6101:6102   */\n              0x00\n                /* \"#utility.yul\":6094:6182   */\n              mstore\n                /* \"#utility.yul\":6201:6205   */\n              0x41\n                /* \"#utility.yul\":6198:6199   */\n              0x04\n                /* \"#utility.yul\":6191:6206   */\n              mstore\n                /* \"#utility.yul\":6225:6229   */\n              0x24\n                /* \"#utility.yul\":6222:6223   */\n              0x00\n                /* \"#utility.yul\":6215:6230   */\n              revert\n                /* \"#utility.yul\":6242:6523   */\n            tag_136:\n                /* \"#utility.yul\":6325:6352   */\n              tag_217\n                /* \"#utility.yul\":6347:6351   */\n              dup3\n                /* \"#utility.yul\":6325:6352   */\n              tag_131\n              jump\t// in\n            tag_217:\n                /* \"#utility.yul\":6317:6323   */\n              dup2\n                /* \"#utility.yul\":6313:6353   */\n              add\n                /* \"#utility.yul\":6455:6461   */\n              dup2\n                /* \"#utility.yul\":6443:6453   */\n              dup2\n                /* \"#utility.yul\":6440:6462   */\n              lt\n                /* \"#utility.yul\":6419:6437   */\n              0xffffffffffffffff\n                /* \"#utility.yul\":6407:6417   */\n              dup3\n                /* \"#utility.yul\":6404:6438   */\n              gt\n                /* \"#utility.yul\":6401:6463   */\n              or\n                /* \"#utility.yul\":6398:6486   */\n              iszero\n              tag_218\n              jumpi\n                /* \"#utility.yul\":6466:6484   */\n              tag_219\n              tag_135\n              jump\t// in\n            tag_219:\n                /* \"#utility.yul\":6398:6486   */\n            tag_218:\n                /* \"#utility.yul\":6506:6516   */\n              dup1\n                /* \"#utility.yul\":6502:6504   */\n              0x40\n                /* \"#utility.yul\":6495:6517   */\n              mstore\n                /* \"#utility.yul\":6285:6523   */\n              pop\n                /* \"#utility.yul\":6242:6523   */\n              pop\n              pop\n              jump\t// out\n                /* \"#utility.yul\":6529:6658   */\n            tag_137:\n                /* \"#utility.yul\":6563:6569   */\n              0x00\n                /* \"#utility.yul\":6590:6610   */\n              tag_221\n              tag_112\n              jump\t// in\n            tag_221:\n                /* \"#utility.yul\":6580:6610   */\n              swap1\n              pop\n                /* \"#utility.yul\":6619:6652   */\n              tag_222\n                /* \"#utility.yul\":6647:6651   */\n              dup3\n                /* \"#utility.yul\":6639:6645   */\n              dup3\n                /* \"#utility.yul\":6619:6652   */\n              tag_136\n              jump\t// in\n            tag_222:\n                /* \"#utility.yul\":6529:6658   */\n              swap2\n              swap1\n              pop\n              jump\t// out\n                /* \"#utility.yul\":6664:6972   */\n            tag_138:\n                /* \"#utility.yul\":6726:6730   */\n              0x00\n                /* \"#utility.yul\":6816:6834   */\n              0xffffffffffffffff\n                /* \"#utility.yul\":6808:6814   */\n              dup3\n                /* \"#utility.yul\":6805:6835   */\n              gt\n                /* \"#utility.yul\":6802:6858   */\n              iszero\n              tag_224\n              jumpi\n                /* \"#utility.yul\":6838:6856   */\n              tag_225\n              tag_135\n              jump\t// in\n            tag_225:\n                /* \"#utility.yul\":6802:6858   */\n            tag_224:\n                /* \"#utility.yul\":6876:6905   */\n              tag_226\n                /* \"#utility.yul\":6898:6904   */\n              dup3\n                /* \"#utility.yul\":6876:6905   */\n              tag_131\n              jump\t// in\n            tag_226:\n                /* \"#utility.yul\":6868:6905   */\n              swap1\n              pop\n                /* \"#utility.yul\":6960:6964   */\n              0x20\n                /* \"#utility.yul\":6954:6958   */\n              dup2\n                /* \"#utility.yul\":6950:6965   */\n              add\n                /* \"#utility.yul\":6942:6965   */\n              swap1\n              pop\n                /* \"#utility.yul\":6664:6972   */\n              swap2\n              swap1\n              pop\n              jump\t// out\n                /* \"#utility.yul\":6978:7132   */\n            tag_139:\n                /* \"#utility.yul\":7062:7068   */\n              dup3\n                /* \"#utility.yul\":7057:7060   */\n              dup2\n                /* \"#utility.yul\":7052:7055   */\n              dup4\n                /* \"#utility.yul\":7039:7069   */\n              calldatacopy\n                /* \"#utility.yul\":7124:7125   */\n              0x00\n                /* \"#utility.yul\":7115:7121   */\n              dup4\n                /* \"#utility.yul\":7110:7113   */\n              dup4\n                /* \"#utility.yul\":7106:7122   */\n              add\n                /* \"#utility.yul\":7099:7126   */\n              mstore\n                /* \"#utility.yul\":6978:7132   */\n              pop\n              pop\n              pop\n              jump\t// out\n                /* \"#utility.yul\":7138:7550   */\n            tag_140:\n                /* \"#utility.yul\":7216:7221   */\n              0x00\n                /* \"#utility.yul\":7241:7307   */\n              tag_229\n                /* \"#utility.yul\":7257:7306   */\n              tag_230\n                /* \"#utility.yul\":7299:7305   */\n              dup5\n                /* \"#utility.yul\":7257:7306   */\n              tag_138\n              jump\t// in\n            tag_230:\n                /* \"#utility.yul\":7241:7307   */\n              tag_137\n              jump\t// in\n            tag_229:\n                /* \"#utility.yul\":7232:7307   */\n              swap1\n              pop\n                /* \"#utility.yul\":7330:7336   */\n              dup3\n                /* \"#utility.yul\":7323:7328   */\n              dup2\n                /* \"#utility.yul\":7316:7337   */\n              mstore\n                /* \"#utility.yul\":7368:7372   */\n              0x20\n                /* \"#utility.yul\":7361:7366   */\n              dup2\n                /* \"#utility.yul\":7357:7373   */\n              add\n                /* \"#utility.yul\":7406:7409   */\n              dup5\n                /* \"#utility.yul\":7397:7403   */\n              dup5\n                /* \"#utility.yul\":7392:7395   */\n              dup5\n                /* \"#utility.yul\":7388:7404   */\n              add\n                /* \"#utility.yul\":7385:7410   */\n              gt\n                /* \"#utility.yul\":7382:7494   */\n              iszero\n              tag_231\n              jumpi\n                /* \"#utility.yul\":7413:7492   */\n              tag_232\n              tag_134\n              jump\t// in\n            tag_232:\n                /* \"#utility.yul\":7382:7494   */\n            tag_231:\n                /* \"#utility.yul\":7503:7544   */\n              tag_233\n                /* \"#utility.yul\":7537:7543   */\n              dup5\n                /* \"#utility.yul\":7532:7535   */\n              dup3\n                /* \"#utility.yul\":7527:7530   */\n              dup6\n                /* \"#utility.yul\":7503:7544   */\n              tag_139\n              jump\t// in\n            tag_233:\n                /* \"#utility.yul\":7222:7550   */\n              pop\n                /* \"#utility.yul\":7138:7550   */\n              swap4\n              swap3\n              pop\n              pop\n              pop\n              jump\t// out\n                /* \"#utility.yul\":7570:7910   */\n            tag_141:\n                /* \"#utility.yul\":7626:7631   */\n              0x00\n                /* \"#utility.yul\":7675:7678   */\n              dup3\n                /* \"#utility.yul\":7668:7672   */\n              0x1f\n                /* \"#utility.yul\":7660:7666   */\n              dup4\n                /* \"#utility.yul\":7656:7673   */\n              add\n                /* \"#utility.yul\":7652:7679   */\n              slt\n                /* \"#utility.yul\":7642:7764   */\n              tag_235\n              jumpi\n                /* \"#utility.yul\":7683:7762   */\n              tag_236\n              tag_133\n              jump\t// in\n            tag_236:\n                /* \"#utility.yul\":7642:7764   */\n            tag_235:\n                /* \"#utility.yul\":7800:7806   */\n              dup2\n                /* \"#utility.yul\":7787:7807   */\n              calldataload\n                /* \"#utility.yul\":7825:7904   */\n              tag_237\n                /* \"#utility.yul\":7900:7903   */\n              dup5\n                /* \"#utility.yul\":7892:7898   */\n              dup3\n                /* \"#utility.yul\":7885:7889   */\n              0x20\n                /* \"#utility.yul\":7877:7883   */\n              dup7\n                /* \"#utility.yul\":7873:7890   */\n              add\n                /* \"#utility.yul\":7825:7904   */\n              tag_140\n              jump\t// in\n            tag_237:\n                /* \"#utility.yul\":7816:7904   */\n              swap2\n              pop\n                /* \"#utility.yul\":7632:7910   */\n              pop\n                /* \"#utility.yul\":7570:7910   */\n              swap3\n              swap2\n              pop\n              pop\n              jump\t// out\n                /* \"#utility.yul\":7916:8715   */\n            tag_55:\n                /* \"#utility.yul\":8003:8009   */\n              0x00\n                /* \"#utility.yul\":8011:8017   */\n              dup1\n                /* \"#utility.yul\":8019:8025   */\n              0x00\n                /* \"#utility.yul\":8068:8070   */\n              0x60\n                /* \"#utility.yul\":8056:8065   */\n              dup5\n                /* \"#utility.yul\":8047:8054   */\n              dup7\n                /* \"#utility.yul\":8043:8066   */\n              sub\n                /* \"#utility.yul\":8039:8071   */\n              slt\n                /* \"#utility.yul\":8036:8155   */\n              iszero\n              tag_239\n              jumpi\n                /* \"#utility.yul\":8074:8153   */\n              tag_240\n              tag_113\n              jump\t// in\n            tag_240:\n                /* \"#utility.yul\":8036:8155   */\n            tag_239:\n                /* \"#utility.yul\":8222:8223   */\n              0x00\n                /* \"#utility.yul\":8211:8220   */\n              dup5\n                /* \"#utility.yul\":8207:8224   */\n              add\n                /* \"#utility.yul\":8194:8225   */\n              calldataload\n                /* \"#utility.yul\":8252:8270   */\n              0xffffffffffffffff\n                /* \"#utility.yul\":8244:8250   */\n              dup2\n                /* \"#utility.yul\":8241:8271   */\n              gt\n                /* \"#utility.yul\":8238:8355   */\n              iszero\n              tag_241\n              jumpi\n                /* \"#utility.yul\":8274:8353   */\n              tag_242\n              tag_114\n              jump\t// in\n            tag_242:\n                /* \"#utility.yul\":8238:8355   */\n            tag_241:\n                /* \"#utility.yul\":8379:8442   */\n              tag_243\n                /* \"#utility.yul\":8434:8441   */\n              dup7\n                /* \"#utility.yul\":8425:8431   */\n              dup3\n                /* \"#utility.yul\":8414:8423   */\n              dup8\n                /* \"#utility.yul\":8410:8432   */\n              add\n                /* \"#utility.yul\":8379:8442   */\n              tag_141\n              jump\t// in\n            tag_243:\n                /* \"#utility.yul\":8369:8442   */\n              swap4\n              pop\n                /* \"#utility.yul\":8165:8452   */\n              pop\n                /* \"#utility.yul\":8491:8493   */\n              0x20\n                /* \"#utility.yul\":8517:8570   */\n              tag_244\n                /* \"#utility.yul\":8562:8569   */\n              dup7\n                /* \"#utility.yul\":8553:8559   */\n              dup3\n                /* \"#utility.yul\":8542:8551   */\n              dup8\n                /* \"#utility.yul\":8538:8560   */\n              add\n                /* \"#utility.yul\":8517:8570   */\n              tag_117\n              jump\t// in\n            tag_244:\n                /* \"#utility.yul\":8507:8570   */\n              swap3\n              pop\n                /* \"#utility.yul\":8462:8580   */\n              pop\n                /* \"#utility.yul\":8619:8621   */\n              0x40\n                /* \"#utility.yul\":8645:8698   */\n              tag_245\n                /* \"#utility.yul\":8690:8697   */\n              dup7\n                /* \"#utility.yul\":8681:8687   */\n              dup3\n                /* \"#utility.yul\":8670:8679   */\n              dup8\n                /* \"#utility.yul\":8666:8688   */\n              add\n                /* \"#utility.yul\":8645:8698   */\n              tag_121\n              jump\t// in\n            tag_245:\n                /* \"#utility.yul\":8635:8698   */\n              swap2\n              pop\n                /* \"#utility.yul\":8590:8708   */\n              pop\n                /* \"#utility.yul\":7916:8715   */\n              swap3\n              pop\n              swap3\n              pop\n              swap3\n              jump\t// out\n                /* \"#utility.yul\":8721:8901   */\n            tag_142:\n                /* \"#utility.yul\":8769:8846   */\n              0x4e487b7100000000000000000000000000000000000000000000000000000000\n                /* \"#utility.yul\":8766:8767   */\n              0x00\n                /* \"#utility.yul\":8759:8847   */\n              mstore\n                /* \"#utility.yul\":8866:8870   */\n              0x12\n                /* \"#utility.yul\":8863:8864   */\n              0x04\n                /* \"#utility.yul\":8856:8871   */\n              mstore\n                /* \"#utility.yul\":8890:8894   */\n              0x24\n                /* \"#utility.yul\":8887:8888   */\n              0x00\n                /* \"#utility.yul\":8880:8895   */\n              revert\n                /* \"#utility.yul\":8907:9087   */\n            tag_143:\n                /* \"#utility.yul\":8955:9032   */\n              0x4e487b7100000000000000000000000000000000000000000000000000000000\n                /* \"#utility.yul\":8952:8953   */\n              0x00\n                /* \"#utility.yul\":8945:9033   */\n              mstore\n                /* \"#utility.yul\":9052:9056   */\n              0x11\n                /* \"#utility.yul\":9049:9050   */\n              0x04\n                /* \"#utility.yul\":9042:9057   */\n              mstore\n                /* \"#utility.yul\":9076:9080   */\n              0x24\n                /* \"#utility.yul\":9073:9074   */\n              0x00\n                /* \"#utility.yul\":9066:9081   */\n              revert\n                /* \"#utility.yul\":9093:9278   */\n            tag_75:\n                /* \"#utility.yul\":9133:9134   */\n              0x00\n                /* \"#utility.yul\":9150:9170   */\n              tag_249\n                /* \"#utility.yul\":9168:9169   */\n              dup3\n                /* \"#utility.yul\":9150:9170   */\n              tag_115\n              jump\t// in\n            tag_249:\n                /* \"#utility.yul\":9145:9170   */\n              swap2\n              pop\n                /* \"#utility.yul\":9184:9204   */\n              tag_250\n                /* \"#utility.yul\":9202:9203   */\n              dup4\n                /* \"#utility.yul\":9184:9204   */\n              tag_115\n              jump\t// in\n            tag_250:\n                /* \"#utility.yul\":9179:9204   */\n              swap3\n              pop\n                /* \"#utility.yul\":9223:9224   */\n              dup3\n                /* \"#utility.yul\":9213:9248   */\n              tag_251\n              jumpi\n                /* \"#utility.yul\":9228:9246   */\n              tag_252\n              tag_142\n              jump\t// in\n            tag_252:\n                /* \"#utility.yul\":9213:9248   */\n            tag_251:\n                /* \"#utility.yul\":9270:9271   */\n              dup3\n                /* \"#utility.yul\":9267:9268   */\n              dup3\n                /* \"#utility.yul\":9263:9272   */\n              div\n                /* \"#utility.yul\":9258:9272   */\n              swap1\n              pop\n                /* \"#utility.yul\":9093:9278   */\n              swap3\n              swap2\n              pop\n              pop\n              jump\t// out\n                /* \"#utility.yul\":9284:9464   */\n            tag_144:\n                /* \"#utility.yul\":9332:9409   */\n              0x4e487b7100000000000000000000000000000000000000000000000000000000\n                /* \"#utility.yul\":9329:9330   */\n              0x00\n                /* \"#utility.yul\":9322:9410   */\n              mstore\n                /* \"#utility.yul\":9429:9433   */\n              0x22\n                /* \"#utility.yul\":9426:9427   */\n              0x04\n                /* \"#utility.yul\":9419:9434   */\n              mstore\n                /* \"#utility.yul\":9453:9457   */\n              0x24\n                /* \"#utility.yul\":9450:9451   */\n              0x00\n                /* \"#utility.yul\":9443:9458   */\n              revert\n                /* \"#utility.yul\":9470:9790   */\n            tag_83:\n                /* \"#utility.yul\":9514:9520   */\n              0x00\n                /* \"#utility.yul\":9551:9552   */\n              0x02\n                /* \"#utility.yul\":9545:9549   */\n              dup3\n                /* \"#utility.yul\":9541:9553   */\n              div\n                /* \"#utility.yul\":9531:9553   */\n              swap1\n              pop\n                /* \"#utility.yul\":9598:9599   */\n              0x01\n                /* \"#utility.yul\":9592:9596   */\n              dup3\n                /* \"#utility.yul\":9588:9600   */\n              and\n                /* \"#utility.yul\":9619:9637   */\n              dup1\n                /* \"#utility.yul\":9609:9690   */\n              tag_255\n              jumpi\n                /* \"#utility.yul\":9675:9679   */\n              0x7f\n                /* \"#utility.yul\":9667:9673   */\n              dup3\n                /* \"#utility.yul\":9663:9680   */\n              and\n                /* \"#utility.yul\":9653:9680   */\n              swap2\n              pop\n                /* \"#utility.yul\":9609:9690   */\n            tag_255:\n                /* \"#utility.yul\":9737:9739   */\n              0x20\n                /* \"#utility.yul\":9729:9735   */\n              dup3\n                /* \"#utility.yul\":9726:9740   */\n              lt\n                /* \"#utility.yul\":9706:9724   */\n              dup2\n                /* \"#utility.yul\":9703:9741   */\n              eq\n                /* \"#utility.yul\":9700:9784   */\n              iszero\n              tag_256\n              jumpi\n                /* \"#utility.yul\":9756:9774   */\n              tag_257\n              tag_144\n              jump\t// in\n            tag_257:\n                /* \"#utility.yul\":9700:9784   */\n            tag_256:\n                /* \"#utility.yul\":9521:9790   */\n              pop\n                /* \"#utility.yul\":9470:9790   */\n              swap2\n              swap1\n              pop\n              jump\t// out\n                /* \"#utility.yul\":9796:10029   */\n            tag_92:\n                /* \"#utility.yul\":9835:9838   */\n              0x00\n                /* \"#utility.yul\":9858:9882   */\n              tag_259\n                /* \"#utility.yul\":9876:9881   */\n              dup3\n                /* \"#utility.yul\":9858:9882   */\n              tag_115\n              jump\t// in\n            tag_259:\n                /* \"#utility.yul\":9849:9882   */\n              swap2\n              pop\n                /* \"#utility.yul\":9904:9970   */\n              0xffffffffffffffffffffffffffffffffffffffffffffffffffffffffffffffff\n                /* \"#utility.yul\":9897:9902   */\n              dup3\n                /* \"#utility.yul\":9894:9971   */\n              eq\n                /* \"#utility.yul\":9891:9994   */\n              iszero\n              tag_260\n              jumpi\n                /* \"#utility.yul\":9974:9992   */\n              tag_261\n              tag_143\n              jump\t// in\n            tag_261:\n                /* \"#utility.yul\":9891:9994   */\n            tag_260:\n                /* \"#utility.yul\":10021:10022   */\n              0x01\n                /* \"#utility.yul\":10014:10019   */\n              dup3\n                /* \"#utility.yul\":10010:10023   */\n              add\n                /* \"#utility.yul\":10003:10023   */\n              swap1\n              pop\n                /* \"#utility.yul\":9796:10029   */\n              swap2\n              swap1\n              pop\n              jump\t// out\n\n            auxdata: 0xa2646970667358221220e5733b78c49087ace2a929f1acadc09212ed74af0e11bfe904c1cdebca984bbe64736f6c63430008090033\n        }\n    }\n\n    auxdata: 0xa264697066735822122015222f58d2d9bc642c7251ceb3c2b44f8a7838e30f4d27068154672649b2167f64736f6c63430008090033\n}\n","bytecode":{"linkReferences":{},"object":"608060405234801561001057600080fd5b506114d8806100206000396000f3fe608060405234801561001057600080fd5b50600436106100415760003560e01c8063339d50a51461004657806386cdf60414610076578063a3303a7514610094575b600080fd5b610060600480360381019061005b9190610266565b6100b0565b60405161006d91906102d4565b60405180910390f35b61007e6100ef565b60405161008b91906103ad565b60405180910390f35b6100ae60048036038101906100a99190610266565b61017d565b005b600081815481106100c057600080fd5b906000526020600020016000915054906101000a900473ffffffffffffffffffffffffffffffffffffffff1681565b6060600080548060200260200160405190810160405280929190818152602001828054801561017357602002820191906000526020600020905b8160009054906101000a900473ffffffffffffffffffffffffffffffffffffffff1673ffffffffffffffffffffffffffffffffffffffff1681526020019060010190808311610129575b5050505050905090565b6000813360405161018d9061021e565b6101989291906103de565b604051809103906000f0801580156101b4573d6000803e3d6000fd5b5090506000819080600181540180825580915050600190039060005260206000200160009091909190916101000a81548173ffffffffffffffffffffffffffffffffffffffff021916908373ffffffffffffffffffffffffffffffffffffffff1602179055505050565b61109b8061040883390190565b600080fd5b6000819050919050565b61024381610230565b811461024e57600080fd5b50565b6000813590506102608161023a565b92915050565b60006020828403121561027c5761027b61022b565b5b600061028a84828501610251565b91505092915050565b600073ffffffffffffffffffffffffffffffffffffffff82169050919050565b60006102be82610293565b9050919050565b6102ce816102b3565b82525050565b60006020820190506102e960008301846102c5565b92915050565b600081519050919050565b600082825260208201905092915050565b6000819050602082019050919050565b610324816102b3565b82525050565b6000610336838361031b565b60208301905092915050565b6000602082019050919050565b600061035a826102ef565b61036481856102fa565b935061036f8361030b565b8060005b838110156103a0578151610387888261032a565b975061039283610342565b925050600181019050610373565b5085935050505092915050565b600060208201905081810360008301526103c7818461034f565b905092915050565b6103d881610230565b82525050565b60006040820190506103f360008301856103cf565b61040060208301846102c5565b939250505056fe60806040523480156200001157600080fd5b506040516200109b3803806200109b83398181016040528101906200003791906200012b565b806000806101000a81548173ffffffffffffffffffffffffffffffffffffffff021916908373ffffffffffffffffffffffffffffffffffffffff16021790555081600181905550505062000172565b600080fd5b6000819050919050565b620000a0816200008b565b8114620000ac57600080fd5b50565b600081519050620000c08162000095565b92915050565b600073ffffffffffffffffffffffffffffffffffffffff82169050919050565b6000620000f382620000c6565b9050919050565b6200010581620000e6565b81146200011157600080fd5b50565b6000815190506200012581620000fa565b92915050565b6000806040838503121562000145576200014462000086565b5b60006200015585828601620000af565b9250506020620001688582860162000114565b9150509250929050565b610f1980620001826000396000f3fe6080604052600436106100a75760003560e01c80638735dc78116100645780638735dc78146101d85780638a9cfd55146102035780639fb42b1f1461022c578063aaffadf314610257578063d7bb99ba14610282578063d7d1bbdb1461028c576100a7565b806303441006146100ac5780630a144391146100d55780633410452a146101125780634051ddac1461013d578063481c6a751461016c57806381d12c5814610197575b600080fd5b3480156100b857600080fd5b506100d360048036038101906100ce919061095d565b6102b5565b005b3480156100e157600080fd5b506100fc60048036038101906100f791906109e8565b6103ee565b6040516101099190610a30565b60405180910390f35b34801561011e57600080fd5b5061012761040e565b6040516101349190610a5a565b60405180910390f35b34801561014957600080fd5b50610152610418565b604051610163959493929190610a84565b60405180910390f35b34801561017857600080fd5b5061018161045c565b60405161018e9190610af8565b60405180910390f35b3480156101a357600080fd5b506101be60048036038101906101b9919061095d565b610480565b6040516101cf959493929190610bac565b60405180910390f35b3480156101e457600080fd5b506101ed61056b565b6040516101fa9190610a5a565b60405180910390f35b34801561020f57600080fd5b5061022a60048036038101906102259190610d3b565b610571565b005b34801561023857600080fd5b50610241610688565b60405161024e9190610a5a565b60405180910390f35b34801561026357600080fd5b5061026c61068e565b6040516102799190610a5a565b60405180910390f35b61028a610694565b005b34801561029857600080fd5b506102b360048036038101906102ae919061095d565b610714565b005b60008054906101000a900473ffffffffffffffffffffffffffffffffffffffff1673ffffffffffffffffffffffffffffffffffffffff163373ffffffffffffffffffffffffffffffffffffffff161461030d57600080fd5b600060056000838152602001908152602001600020905060026003546103339190610e08565b81600301541161034257600080fd5b8060020160149054906101000a900460ff161561035e57600080fd5b8060020160009054906101000a900473ffffffffffffffffffffffffffffffffffffffff1673ffffffffffffffffffffffffffffffffffffffff166108fc82600101549081150290604051600060405180830381858888f193505050501580156103cc573d6000803e3d6000fd5b5060018160020160146101000a81548160ff0219169083151502179055505050565b60046020528060005260406000206000915054906101000a900460ff1681565b6000600354905090565b60008060008060006001544760025460035460008054906101000a900473ffffffffffffffffffffffffffffffffffffffff16945094509450945094509091929394565b60008054906101000a900473ffffffffffffffffffffffffffffffffffffffff1681565b60056020528060005260406000206000915090508060000180546104a390610e68565b80601f01602080910402602001604051908101604052809291908181526020018280546104cf90610e68565b801561051c5780601f106104f15761010080835404028352916020019161051c565b820191906000526020600020905b8154815290600101906020018083116104ff57829003601f168201915b5050505050908060010154908060020160009054906101000a900473ffffffffffffffffffffffffffffffffffffffff16908060020160149054906101000a900460ff16908060030154905085565b60035481565b60008054906101000a900473ffffffffffffffffffffffffffffffffffffffff1673ffffffffffffffffffffffffffffffffffffffff163373ffffffffffffffffffffffffffffffffffffffff16146105c957600080fd5b600060056000600260008154809291906105e290610e9a565b91905055815260200190815260200160002090508381600001908051906020019061060e929190610870565b50828160010181905550818160020160006101000a81548173ffffffffffffffffffffffffffffffffffffffff021916908373ffffffffffffffffffffffffffffffffffffffff16021790555060008160020160146101000a81548160ff0219169083151502179055506000816003018190555050505050565b60025481565b60015481565b60015434116106a257600080fd5b6001600460003373ffffffffffffffffffffffffffffffffffffffff1673ffffffffffffffffffffffffffffffffffffffff16815260200190815260200160002060006101000a81548160ff0219169083151502179055506003600081548092919061070d90610e9a565b9190505550565b600460003373ffffffffffffffffffffffffffffffffffffffff1673ffffffffffffffffffffffffffffffffffffffff16815260200190815260200160002060009054906101000a900460ff1661076a57600080fd5b6005600082815260200190815260200160002060040160003373ffffffffffffffffffffffffffffffffffffffff1673ffffffffffffffffffffffffffffffffffffffff16815260200190815260200160002060009054906101000a900460ff16156107d557600080fd5b60016005600083815260200190815260200160002060040160003373ffffffffffffffffffffffffffffffffffffffff1673ffffffffffffffffffffffffffffffffffffffff16815260200190815260200160002060006101000a81548160ff02191690831515021790555060056000828152602001908152602001600020600301600081548092919061086890610e9a565b919050555050565b82805461087c90610e68565b90600052602060002090601f01602090048101928261089e57600085556108e5565b82601f106108b757805160ff19168380011785556108e5565b828001600101855582156108e5579182015b828111156108e45782518255916020019190600101906108c9565b5b5090506108f291906108f6565b5090565b5b8082111561090f5760008160009055506001016108f7565b5090565b6000604051905090565b600080fd5b600080fd5b6000819050919050565b61093a81610927565b811461094557600080fd5b50565b60008135905061095781610931565b92915050565b6000602082840312156109735761097261091d565b5b600061098184828501610948565b91505092915050565b600073ffffffffffffffffffffffffffffffffffffffff82169050919050565b60006109b58261098a565b9050919050565b6109c5816109aa565b81146109d057600080fd5b50565b6000813590506109e2816109bc565b92915050565b6000602082840312156109fe576109fd61091d565b5b6000610a0c848285016109d3565b91505092915050565b60008115159050919050565b610a2a81610a15565b82525050565b6000602082019050610a456000830184610a21565b92915050565b610a5481610927565b82525050565b6000602082019050610a6f6000830184610a4b565b92915050565b610a7e816109aa565b82525050565b600060a082019050610a996000830188610a4b565b610aa66020830187610a4b565b610ab36040830186610a4b565b610ac06060830185610a4b565b610acd6080830184610a75565b9695505050505050565b6000610ae28261098a565b9050919050565b610af281610ad7565b82525050565b6000602082019050610b0d6000830184610ae9565b92915050565b600081519050919050565b600082825260208201905092915050565b60005b83811015610b4d578082015181840152602081019050610b32565b83811115610b5c576000848401525b50505050565b6000601f19601f8301169050919050565b6000610b7e82610b13565b610b888185610b1e565b9350610b98818560208601610b2f565b610ba181610b62565b840191505092915050565b600060a0820190508181036000830152610bc68188610b73565b9050610bd56020830187610a4b565b610be26040830186610ae9565b610bef6060830185610a21565b610bfc6080830184610a4b565b9695505050505050565b600080fd5b600080fd5b7f4e487b7100000000000000000000000000000000000000000000000000000000600052604160045260246000fd5b610c4882610b62565b810181811067ffffffffffffffff82111715610c6757610c66610c10565b5b80604052505050565b6000610c7a610913565b9050610c868282610c3f565b919050565b600067ffffffffffffffff821115610ca657610ca5610c10565b5b610caf82610b62565b9050602081019050919050565b82818337600083830152505050565b6000610cde610cd984610c8b565b610c70565b905082815260208101848484011115610cfa57610cf9610c0b565b5b610d05848285610cbc565b509392505050565b600082601f830112610d2257610d21610c06565b5b8135610d32848260208601610ccb565b91505092915050565b600080600060608486031215610d5457610d5361091d565b5b600084013567ffffffffffffffff811115610d7257610d71610922565b5b610d7e86828701610d0d565b9350506020610d8f86828701610948565b9250506040610da0868287016109d3565b9150509250925092565b7f4e487b7100000000000000000000000000000000000000000000000000000000600052601260045260246000fd5b7f4e487b7100000000000000000000000000000000000000000000000000000000600052601160045260246000fd5b6000610e1382610927565b9150610e1e83610927565b925082610e2e57610e2d610daa565b5b828204905092915050565b7f4e487b7100000000000000000000000000000000000000000000000000000000600052602260045260246000fd5b60006002820490506001821680610e8057607f821691505b60208210811415610e9457610e93610e39565b5b50919050565b6000610ea582610927565b91507fffffffffffffffffffffffffffffffffffffffffffffffffffffffffffffffff821415610ed857610ed7610dd9565b5b60018201905091905056fea2646970667358221220e5733b78c49087ace2a929f1acadc09212ed74af0e11bfe904c1cdebca984bbe64736f6c63430008090033a264697066735822122015222f58d2d9bc642c7251ceb3c2b44f8a7838e30f4d27068154672649b2167f64736f6c63430008090033","opcodes":"PUSH1 0x80 PUSH1 0x40 MSTORE CALLVALUE DUP1 ISZERO PUSH2 0x10 JUMPI PUSH1 0x0 DUP1 REVERT JUMPDEST POP PUSH2 0x14D8 DUP1 PUSH2 0x20 PUSH1 0x0 CODECOPY PUSH1 0x0 RETURN INVALID PUSH1 0x80 PUSH1 0x40 MSTORE CALLVALUE DUP1 ISZERO PUSH2 0x10 JUMPI PUSH1 0x0 DUP1 REVERT JUMPDEST POP PUSH1 0x4 CALLDATASIZE LT PUSH2 0x41 JUMPI PUSH1 0x0 CALLDATALOAD PUSH1 0xE0 SHR DUP1 PUSH4 0x339D50A5 EQ PUSH2 0x46 JUMPI DUP1 PUSH4 0x86CDF604 EQ PUSH2 0x76 JUMPI DUP1 PUSH4 0xA3303A75 EQ PUSH2 0x94 JUMPI JUMPDEST PUSH1 0x0 DUP1 REVERT JUMPDEST PUSH2 0x60 PUSH1 0x4 DUP1 CALLDATASIZE SUB DUP2 ADD SWAP1 PUSH2 0x5B SWAP2 SWAP1 PUSH2 0x266 JUMP JUMPDEST PUSH2 0xB0 JUMP JUMPDEST PUSH1 0x40 MLOAD PUSH2 0x6D SWAP2 SWAP1 PUSH2 0x2D4 JUMP JUMPDEST PUSH1 0x40 MLOAD DUP1 SWAP2 SUB SWAP1 RETURN JUMPDEST PUSH2 0x7E PUSH2 0xEF JUMP JUMPDEST PUSH1 0x40 MLOAD PUSH2 0x8B SWAP2 SWAP1 PUSH2 0x3AD JUMP JUMPDEST PUSH1 0x40 MLOAD DUP1 SWAP2 SUB SWAP1 RETURN JUMPDEST PUSH2 0xAE PUSH1 0x4 DUP1 CALLDATASIZE SUB DUP2 ADD SWAP1 PUSH2 0xA9 SWAP2 SWAP1 PUSH2 0x266 JUMP JUMPDEST PUSH2 0x17D JUMP JUMPDEST STOP JUMPDEST PUSH1 0x0 DUP2 DUP2 SLOAD DUP2 LT PUSH2 0xC0 JUMPI PUSH1 0x0 DUP1 REVERT JUMPDEST SWAP1 PUSH1 0x0 MSTORE PUSH1 0x20 PUSH1 0x0 KECCAK256 ADD PUSH1 0x0 SWAP2 POP SLOAD SWAP1 PUSH2 0x100 EXP SWAP1 DIV PUSH20 0xFFFFFFFFFFFFFFFFFFFFFFFFFFFFFFFFFFFFFFFF AND DUP2 JUMP JUMPDEST PUSH1 0x60 PUSH1 0x0 DUP1 SLOAD DUP1 PUSH1 0x20 MUL PUSH1 0x20 ADD PUSH1 0x40 MLOAD SWAP1 DUP2 ADD PUSH1 0x40 MSTORE DUP1 SWAP3 SWAP2 SWAP1 DUP2 DUP2 MSTORE PUSH1 0x20 ADD DUP3 DUP1 SLOAD DUP1 ISZERO PUSH2 0x173 JUMPI PUSH1 0x20 MUL DUP3 ADD SWAP2 SWAP1 PUSH1 0x0 MSTORE PUSH1 0x20 PUSH1 0x0 KECCAK256 SWAP1 JUMPDEST DUP2 PUSH1 0x0 SWAP1 SLOAD SWAP1 PUSH2 0x100 EXP SWAP1 DIV PUSH20 0xFFFFFFFFFFFFFFFFFFFFFFFFFFFFFFFFFFFFFFFF AND PUSH20 0xFFFFFFFFFFFFFFFFFFFFFFFFFFFFFFFFFFFFFFFF AND DUP2 MSTORE PUSH1 0x20 ADD SWAP1 PUSH1 0x1 ADD SWAP1 DUP1 DUP4 GT PUSH2 0x129 JUMPI JUMPDEST POP POP POP POP POP SWAP1 POP SWAP1 JUMP JUMPDEST PUSH1 0x0 DUP2 CALLER PUSH1 0x40 MLOAD PUSH2 0x18D SWAP1 PUSH2 0x21E JUMP JUMPDEST PUSH2 0x198 SWAP3 SWAP2 SWAP1 PUSH2 0x3DE JUMP JUMPDEST PUSH1 0x40 MLOAD DUP1 SWAP2 SUB SWAP1 PUSH1 0x0 CREATE DUP1 ISZERO DUP1 ISZERO PUSH2 0x1B4 JUMPI RETURNDATASIZE PUSH1 0x0 DUP1 RETURNDATACOPY RETURNDATASIZE PUSH1 0x0 REVERT JUMPDEST POP SWAP1 POP PUSH1 0x0 DUP2 SWAP1 DUP1 PUSH1 0x1 DUP2 SLOAD ADD DUP1 DUP3 SSTORE DUP1 SWAP2 POP POP PUSH1 0x1 SWAP1 SUB SWAP1 PUSH1 0x0 MSTORE PUSH1 0x20 PUSH1 0x0 KECCAK256 ADD PUSH1 0x0 SWAP1 SWAP2 SWAP1 SWAP2 SWAP1 SWAP2 PUSH2 0x100 EXP DUP2 SLOAD DUP2 PUSH20 0xFFFFFFFFFFFFFFFFFFFFFFFFFFFFFFFFFFFFFFFF MUL NOT AND SWAP1 DUP4 PUSH20 0xFFFFFFFFFFFFFFFFFFFFFFFFFFFFFFFFFFFFFFFF AND MUL OR SWAP1 SSTORE POP POP POP JUMP JUMPDEST PUSH2 0x109B DUP1 PUSH2 0x408 DUP4 CODECOPY ADD SWAP1 JUMP JUMPDEST PUSH1 0x0 DUP1 REVERT JUMPDEST PUSH1 0x0 DUP2 SWAP1 POP SWAP2 SWAP1 POP JUMP JUMPDEST PUSH2 0x243 DUP2 PUSH2 0x230 JUMP JUMPDEST DUP2 EQ PUSH2 0x24E JUMPI PUSH1 0x0 DUP1 REVERT JUMPDEST POP JUMP JUMPDEST PUSH1 0x0 DUP2 CALLDATALOAD SWAP1 POP PUSH2 0x260 DUP2 PUSH2 0x23A JUMP JUMPDEST SWAP3 SWAP2 POP POP JUMP JUMPDEST PUSH1 0x0 PUSH1 0x20 DUP3 DUP5 SUB SLT ISZERO PUSH2 0x27C JUMPI PUSH2 0x27B PUSH2 0x22B JUMP JUMPDEST JUMPDEST PUSH1 0x0 PUSH2 0x28A DUP5 DUP3 DUP6 ADD PUSH2 0x251 JUMP JUMPDEST SWAP2 POP POP SWAP3 SWAP2 POP POP JUMP JUMPDEST PUSH1 0x0 PUSH20 0xFFFFFFFFFFFFFFFFFFFFFFFFFFFFFFFFFFFFFFFF DUP3 AND SWAP1 POP SWAP2 SWAP1 POP JUMP JUMPDEST PUSH1 0x0 PUSH2 0x2BE DUP3 PUSH2 0x293 JUMP JUMPDEST SWAP1 POP SWAP2 SWAP1 POP JUMP JUMPDEST PUSH2 0x2CE DUP2 PUSH2 0x2B3 JUMP JUMPDEST DUP3 MSTORE POP POP JUMP JUMPDEST PUSH1 0x0 PUSH1 0x20 DUP3 ADD SWAP1 POP PUSH2 0x2E9 PUSH1 0x0 DUP4 ADD DUP5 PUSH2 0x2C5 JUMP JUMPDEST SWAP3 SWAP2 POP POP JUMP JUMPDEST PUSH1 0x0 DUP2 MLOAD SWAP1 POP SWAP2 SWAP1 POP JUMP JUMPDEST PUSH1 0x0 DUP3 DUP3 MSTORE PUSH1 0x20 DUP3 ADD SWAP1 POP SWAP3 SWAP2 POP POP JUMP JUMPDEST PUSH1 0x0 DUP2 SWAP1 POP PUSH1 0x20 DUP3 ADD SWAP1 POP SWAP2 SWAP1 POP JUMP JUMPDEST PUSH2 0x324 DUP2 PUSH2 0x2B3 JUMP JUMPDEST DUP3 MSTORE POP POP JUMP JUMPDEST PUSH1 0x0 PUSH2 0x336 DUP4 DUP4 PUSH2 0x31B JUMP JUMPDEST PUSH1 0x20 DUP4 ADD SWAP1 POP SWAP3 SWAP2 POP POP JUMP JUMPDEST PUSH1 0x0 PUSH1 0x20 DUP3 ADD SWAP1 POP SWAP2 SWAP1 POP JUMP JUMPDEST PUSH1 0x0 PUSH2 0x35A DUP3 PUSH2 0x2EF JUMP JUMPDEST PUSH2 0x364 DUP2 DUP6 PUSH2 0x2FA JUMP JUMPDEST SWAP4 POP PUSH2 0x36F DUP4 PUSH2 0x30B JUMP JUMPDEST DUP1 PUSH1 0x0 JUMPDEST DUP4 DUP2 LT ISZERO PUSH2 0x3A0 JUMPI DUP2 MLOAD PUSH2 0x387 DUP9 DUP3 PUSH2 0x32A JUMP JUMPDEST SWAP8 POP PUSH2 0x392 DUP4 PUSH2 0x342 JUMP JUMPDEST SWAP3 POP POP PUSH1 0x1 DUP2 ADD SWAP1 POP PUSH2 0x373 JUMP JUMPDEST POP DUP6 SWAP4 POP POP POP POP SWAP3 SWAP2 POP POP JUMP JUMPDEST PUSH1 0x0 PUSH1 0x20 DUP3 ADD SWAP1 POP DUP2 DUP2 SUB PUSH1 0x0 DUP4 ADD MSTORE PUSH2 0x3C7 DUP2 DUP5 PUSH2 0x34F JUMP JUMPDEST SWAP1 POP SWAP3 SWAP2 POP POP JUMP JUMPDEST PUSH2 0x3D8 DUP2 PUSH2 0x230 JUMP JUMPDEST DUP3 MSTORE POP POP JUMP JUMPDEST PUSH1 0x0 PUSH1 0x40 DUP3 ADD SWAP1 POP PUSH2 0x3F3 PUSH1 0x0 DUP4 ADD DUP6 PUSH2 0x3CF JUMP JUMPDEST PUSH2 0x400 PUSH1 0x20 DUP4 ADD DUP5 PUSH2 0x2C5 JUMP JUMPDEST SWAP4 SWAP3 POP POP POP JUMP INVALID PUSH1 0x80 PUSH1 0x40 MSTORE CALLVALUE DUP1 ISZERO PUSH3 0x11 JUMPI PUSH1 0x0 DUP1 REVERT JUMPDEST POP PUSH1 0x40 MLOAD PUSH3 0x109B CODESIZE SUB DUP1 PUSH3 0x109B DUP4 CODECOPY DUP2 DUP2 ADD PUSH1 0x40 MSTORE DUP2 ADD SWAP1 PUSH3 0x37 SWAP2 SWAP1 PUSH3 0x12B JUMP JUMPDEST DUP1 PUSH1 0x0 DUP1 PUSH2 0x100 EXP DUP2 SLOAD DUP2 PUSH20 0xFFFFFFFFFFFFFFFFFFFFFFFFFFFFFFFFFFFFFFFF MUL NOT AND SWAP1 DUP4 PUSH20 0xFFFFFFFFFFFFFFFFFFFFFFFFFFFFFFFFFFFFFFFF AND MUL OR SWAP1 SSTORE POP DUP2 PUSH1 0x1 DUP2 SWAP1 SSTORE POP POP POP PUSH3 0x172 JUMP JUMPDEST PUSH1 0x0 DUP1 REVERT JUMPDEST PUSH1 0x0 DUP2 SWAP1 POP SWAP2 SWAP1 POP JUMP JUMPDEST PUSH3 0xA0 DUP2 PUSH3 0x8B JUMP JUMPDEST DUP2 EQ PUSH3 0xAC JUMPI PUSH1 0x0 DUP1 REVERT JUMPDEST POP JUMP JUMPDEST PUSH1 0x0 DUP2 MLOAD SWAP1 POP PUSH3 0xC0 DUP2 PUSH3 0x95 JUMP JUMPDEST SWAP3 SWAP2 POP POP JUMP JUMPDEST PUSH1 0x0 PUSH20 0xFFFFFFFFFFFFFFFFFFFFFFFFFFFFFFFFFFFFFFFF DUP3 AND SWAP1 POP SWAP2 SWAP1 POP JUMP JUMPDEST PUSH1 0x0 PUSH3 0xF3 DUP3 PUSH3 0xC6 JUMP JUMPDEST SWAP1 POP SWAP2 SWAP1 POP JUMP JUMPDEST PUSH3 0x105 DUP2 PUSH3 0xE6 JUMP JUMPDEST DUP2 EQ PUSH3 0x111 JUMPI PUSH1 0x0 DUP1 REVERT JUMPDEST POP JUMP JUMPDEST PUSH1 0x0 DUP2 MLOAD SWAP1 POP PUSH3 0x125 DUP2 PUSH3 0xFA JUMP JUMPDEST SWAP3 SWAP2 POP POP JUMP JUMPDEST PUSH1 0x0 DUP1 PUSH1 0x40 DUP4 DUP6 SUB SLT ISZERO PUSH3 0x145 JUMPI PUSH3 0x144 PUSH3 0x86 JUMP JUMPDEST JUMPDEST PUSH1 0x0 PUSH3 0x155 DUP6 DUP3 DUP7 ADD PUSH3 0xAF JUMP JUMPDEST SWAP3 POP POP PUSH1 0x20 PUSH3 0x168 DUP6 DUP3 DUP7 ADD PUSH3 0x114 JUMP JUMPDEST SWAP2 POP POP SWAP3 POP SWAP3 SWAP1 POP JUMP JUMPDEST PUSH2 0xF19 DUP1 PUSH3 0x182 PUSH1 0x0 CODECOPY PUSH1 0x0 RETURN INVALID PUSH1 0x80 PUSH1 0x40 MSTORE PUSH1 0x4 CALLDATASIZE LT PUSH2 0xA7 JUMPI PUSH1 0x0 CALLDATALOAD PUSH1 0xE0 SHR DUP1 PUSH4 0x8735DC78 GT PUSH2 0x64 JUMPI DUP1 PUSH4 0x8735DC78 EQ PUSH2 0x1D8 JUMPI DUP1 PUSH4 0x8A9CFD55 EQ PUSH2 0x203 JUMPI DUP1 PUSH4 0x9FB42B1F EQ PUSH2 0x22C JUMPI DUP1 PUSH4 0xAAFFADF3 EQ PUSH2 0x257 JUMPI DUP1 PUSH4 0xD7BB99BA EQ PUSH2 0x282 JUMPI DUP1 PUSH4 0xD7D1BBDB EQ PUSH2 0x28C JUMPI PUSH2 0xA7 JUMP JUMPDEST DUP1 PUSH4 0x3441006 EQ PUSH2 0xAC JUMPI DUP1 PUSH4 0xA144391 EQ PUSH2 0xD5 JUMPI DUP1 PUSH4 0x3410452A EQ PUSH2 0x112 JUMPI DUP1 PUSH4 0x4051DDAC EQ PUSH2 0x13D JUMPI DUP1 PUSH4 0x481C6A75 EQ PUSH2 0x16C JUMPI DUP1 PUSH4 0x81D12C58 EQ PUSH2 0x197 JUMPI JUMPDEST PUSH1 0x0 DUP1 REVERT JUMPDEST CALLVALUE DUP1 ISZERO PUSH2 0xB8 JUMPI PUSH1 0x0 DUP1 REVERT JUMPDEST POP PUSH2 0xD3 PUSH1 0x4 DUP1 CALLDATASIZE SUB DUP2 ADD SWAP1 PUSH2 0xCE SWAP2 SWAP1 PUSH2 0x95D JUMP JUMPDEST PUSH2 0x2B5 JUMP JUMPDEST STOP JUMPDEST CALLVALUE DUP1 ISZERO PUSH2 0xE1 JUMPI PUSH1 0x0 DUP1 REVERT JUMPDEST POP PUSH2 0xFC PUSH1 0x4 DUP1 CALLDATASIZE SUB DUP2 ADD SWAP1 PUSH2 0xF7 SWAP2 SWAP1 PUSH2 0x9E8 JUMP JUMPDEST PUSH2 0x3EE JUMP JUMPDEST PUSH1 0x40 MLOAD PUSH2 0x109 SWAP2 SWAP1 PUSH2 0xA30 JUMP JUMPDEST PUSH1 0x40 MLOAD DUP1 SWAP2 SUB SWAP1 RETURN JUMPDEST CALLVALUE DUP1 ISZERO PUSH2 0x11E JUMPI PUSH1 0x0 DUP1 REVERT JUMPDEST POP PUSH2 0x127 PUSH2 0x40E JUMP JUMPDEST PUSH1 0x40 MLOAD PUSH2 0x134 SWAP2 SWAP1 PUSH2 0xA5A JUMP JUMPDEST PUSH1 0x40 MLOAD DUP1 SWAP2 SUB SWAP1 RETURN JUMPDEST CALLVALUE DUP1 ISZERO PUSH2 0x149 JUMPI PUSH1 0x0 DUP1 REVERT JUMPDEST POP PUSH2 0x152 PUSH2 0x418 JUMP JUMPDEST PUSH1 0x40 MLOAD PUSH2 0x163 SWAP6 SWAP5 SWAP4 SWAP3 SWAP2 SWAP1 PUSH2 0xA84 JUMP JUMPDEST PUSH1 0x40 MLOAD DUP1 SWAP2 SUB SWAP1 RETURN JUMPDEST CALLVALUE DUP1 ISZERO PUSH2 0x178 JUMPI PUSH1 0x0 DUP1 REVERT JUMPDEST POP PUSH2 0x181 PUSH2 0x45C JUMP JUMPDEST PUSH1 0x40 MLOAD PUSH2 0x18E SWAP2 SWAP1 PUSH2 0xAF8 JUMP JUMPDEST PUSH1 0x40 MLOAD DUP1 SWAP2 SUB SWAP1 RETURN JUMPDEST CALLVALUE DUP1 ISZERO PUSH2 0x1A3 JUMPI PUSH1 0x0 DUP1 REVERT JUMPDEST POP PUSH2 0x1BE PUSH1 0x4 DUP1 CALLDATASIZE SUB DUP2 ADD SWAP1 PUSH2 0x1B9 SWAP2 SWAP1 PUSH2 0x95D JUMP JUMPDEST PUSH2 0x480 JUMP JUMPDEST PUSH1 0x40 MLOAD PUSH2 0x1CF SWAP6 SWAP5 SWAP4 SWAP3 SWAP2 SWAP1 PUSH2 0xBAC JUMP JUMPDEST PUSH1 0x40 MLOAD DUP1 SWAP2 SUB SWAP1 RETURN JUMPDEST CALLVALUE DUP1 ISZERO PUSH2 0x1E4 JUMPI PUSH1 0x0 DUP1 REVERT JUMPDEST POP PUSH2 0x1ED PUSH2 0x56B JUMP JUMPDEST PUSH1 0x40 MLOAD PUSH2 0x1FA SWAP2 SWAP1 PUSH2 0xA5A JUMP JUMPDEST PUSH1 0x40 MLOAD DUP1 SWAP2 SUB SWAP1 RETURN JUMPDEST CALLVALUE DUP1 ISZERO PUSH2 0x20F JUMPI PUSH1 0x0 DUP1 REVERT JUMPDEST POP PUSH2 0x22A PUSH1 0x4 DUP1 CALLDATASIZE SUB DUP2 ADD SWAP1 PUSH2 0x225 SWAP2 SWAP1 PUSH2 0xD3B JUMP JUMPDEST PUSH2 0x571 JUMP JUMPDEST STOP JUMPDEST CALLVALUE DUP1 ISZERO PUSH2 0x238 JUMPI PUSH1 0x0 DUP1 REVERT JUMPDEST POP PUSH2 0x241 PUSH2 0x688 JUMP JUMPDEST PUSH1 0x40 MLOAD PUSH2 0x24E SWAP2 SWAP1 PUSH2 0xA5A JUMP JUMPDEST PUSH1 0x40 MLOAD DUP1 SWAP2 SUB SWAP1 RETURN JUMPDEST CALLVALUE DUP1 ISZERO PUSH2 0x263 JUMPI PUSH1 0x0 DUP1 REVERT JUMPDEST POP PUSH2 0x26C PUSH2 0x68E JUMP JUMPDEST PUSH1 0x40 MLOAD PUSH2 0x279 SWAP2 SWAP1 PUSH2 0xA5A JUMP JUMPDEST PUSH1 0x40 MLOAD DUP1 SWAP2 SUB SWAP1 RETURN JUMPDEST PUSH2 0x28A PUSH2 0x694 JUMP JUMPDEST STOP JUMPDEST CALLVALUE DUP1 ISZERO PUSH2 0x298 JUMPI PUSH1 0x0 DUP1 REVERT JUMPDEST POP PUSH2 0x2B3 PUSH1 0x4 DUP1 CALLDATASIZE SUB DUP2 ADD SWAP1 PUSH2 0x2AE SWAP2 SWAP1 PUSH2 0x95D JUMP JUMPDEST PUSH2 0x714 JUMP JUMPDEST STOP JUMPDEST PUSH1 0x0 DUP1 SLOAD SWAP1 PUSH2 0x100 EXP SWAP1 DIV PUSH20 0xFFFFFFFFFFFFFFFFFFFFFFFFFFFFFFFFFFFFFFFF AND PUSH20 0xFFFFFFFFFFFFFFFFFFFFFFFFFFFFFFFFFFFFFFFF AND CALLER PUSH20 0xFFFFFFFFFFFFFFFFFFFFFFFFFFFFFFFFFFFFFFFF AND EQ PUSH2 0x30D JUMPI PUSH1 0x0 DUP1 REVERT JUMPDEST PUSH1 0x0 PUSH1 0x5 PUSH1 0x0 DUP4 DUP2 MSTORE PUSH1 0x20 ADD SWAP1 DUP2 MSTORE PUSH1 0x20 ADD PUSH1 0x0 KECCAK256 SWAP1 POP PUSH1 0x2 PUSH1 0x3 SLOAD PUSH2 0x333 SWAP2 SWAP1 PUSH2 0xE08 JUMP JUMPDEST DUP2 PUSH1 0x3 ADD SLOAD GT PUSH2 0x342 JUMPI PUSH1 0x0 DUP1 REVERT JUMPDEST DUP1 PUSH1 0x2 ADD PUSH1 0x14 SWAP1 SLOAD SWAP1 PUSH2 0x100 EXP SWAP1 DIV PUSH1 0xFF AND ISZERO PUSH2 0x35E JUMPI PUSH1 0x0 DUP1 REVERT JUMPDEST DUP1 PUSH1 0x2 ADD PUSH1 0x0 SWAP1 SLOAD SWAP1 PUSH2 0x100 EXP SWAP1 DIV PUSH20 0xFFFFFFFFFFFFFFFFFFFFFFFFFFFFFFFFFFFFFFFF AND PUSH20 0xFFFFFFFFFFFFFFFFFFFFFFFFFFFFFFFFFFFFFFFF AND PUSH2 0x8FC DUP3 PUSH1 0x1 ADD SLOAD SWAP1 DUP2 ISZERO MUL SWAP1 PUSH1 0x40 MLOAD PUSH1 0x0 PUSH1 0x40 MLOAD DUP1 DUP4 SUB DUP2 DUP6 DUP9 DUP9 CALL SWAP4 POP POP POP POP ISZERO DUP1 ISZERO PUSH2 0x3CC JUMPI RETURNDATASIZE PUSH1 0x0 DUP1 RETURNDATACOPY RETURNDATASIZE PUSH1 0x0 REVERT JUMPDEST POP PUSH1 0x1 DUP2 PUSH1 0x2 ADD PUSH1 0x14 PUSH2 0x100 EXP DUP2 SLOAD DUP2 PUSH1 0xFF MUL NOT AND SWAP1 DUP4 ISZERO ISZERO MUL OR SWAP1 SSTORE POP POP POP JUMP JUMPDEST PUSH1 0x4 PUSH1 0x20 MSTORE DUP1 PUSH1 0x0 MSTORE PUSH1 0x40 PUSH1 0x0 KECCAK256 PUSH1 0x0 SWAP2 POP SLOAD SWAP1 PUSH2 0x100 EXP SWAP1 DIV PUSH1 0xFF AND DUP2 JUMP JUMPDEST PUSH1 0x0 PUSH1 0x3 SLOAD SWAP1 POP SWAP1 JUMP JUMPDEST PUSH1 0x0 DUP1 PUSH1 0x0 DUP1 PUSH1 0x0 PUSH1 0x1 SLOAD SELFBALANCE PUSH1 0x2 SLOAD PUSH1 0x3 SLOAD PUSH1 0x0 DUP1 SLOAD SWAP1 PUSH2 0x100 EXP SWAP1 DIV PUSH20 0xFFFFFFFFFFFFFFFFFFFFFFFFFFFFFFFFFFFFFFFF AND SWAP5 POP SWAP5 POP SWAP5 POP SWAP5 POP SWAP5 POP SWAP1 SWAP2 SWAP3 SWAP4 SWAP5 JUMP JUMPDEST PUSH1 0x0 DUP1 SLOAD SWAP1 PUSH2 0x100 EXP SWAP1 DIV PUSH20 0xFFFFFFFFFFFFFFFFFFFFFFFFFFFFFFFFFFFFFFFF AND DUP2 JUMP JUMPDEST PUSH1 0x5 PUSH1 0x20 MSTORE DUP1 PUSH1 0x0 MSTORE PUSH1 0x40 PUSH1 0x0 KECCAK256 PUSH1 0x0 SWAP2 POP SWAP1 POP DUP1 PUSH1 0x0 ADD DUP1 SLOAD PUSH2 0x4A3 SWAP1 PUSH2 0xE68 JUMP JUMPDEST DUP1 PUSH1 0x1F ADD PUSH1 0x20 DUP1 SWAP2 DIV MUL PUSH1 0x20 ADD PUSH1 0x40 MLOAD SWAP1 DUP2 ADD PUSH1 0x40 MSTORE DUP1 SWAP3 SWAP2 SWAP1 DUP2 DUP2 MSTORE PUSH1 0x20 ADD DUP3 DUP1 SLOAD PUSH2 0x4CF SWAP1 PUSH2 0xE68 JUMP JUMPDEST DUP1 ISZERO PUSH2 0x51C JUMPI DUP1 PUSH1 0x1F LT PUSH2 0x4F1 JUMPI PUSH2 0x100 DUP1 DUP4 SLOAD DIV MUL DUP4 MSTORE SWAP2 PUSH1 0x20 ADD SWAP2 PUSH2 0x51C JUMP JUMPDEST DUP3 ADD SWAP2 SWAP1 PUSH1 0x0 MSTORE PUSH1 0x20 PUSH1 0x0 KECCAK256 SWAP1 JUMPDEST DUP2 SLOAD DUP2 MSTORE SWAP1 PUSH1 0x1 ADD SWAP1 PUSH1 0x20 ADD DUP1 DUP4 GT PUSH2 0x4FF JUMPI DUP3 SWAP1 SUB PUSH1 0x1F AND DUP3 ADD SWAP2 JUMPDEST POP POP POP POP POP SWAP1 DUP1 PUSH1 0x1 ADD SLOAD SWAP1 DUP1 PUSH1 0x2 ADD PUSH1 0x0 SWAP1 SLOAD SWAP1 PUSH2 0x100 EXP SWAP1 DIV PUSH20 0xFFFFFFFFFFFFFFFFFFFFFFFFFFFFFFFFFFFFFFFF AND SWAP1 DUP1 PUSH1 0x2 ADD PUSH1 0x14 SWAP1 SLOAD SWAP1 PUSH2 0x100 EXP SWAP1 DIV PUSH1 0xFF AND SWAP1 DUP1 PUSH1 0x3 ADD SLOAD SWAP1 POP DUP6 JUMP JUMPDEST PUSH1 0x3 SLOAD DUP2 JUMP JUMPDEST PUSH1 0x0 DUP1 SLOAD SWAP1 PUSH2 0x100 EXP SWAP1 DIV PUSH20 0xFFFFFFFFFFFFFFFFFFFFFFFFFFFFFFFFFFFFFFFF AND PUSH20 0xFFFFFFFFFFFFFFFFFFFFFFFFFFFFFFFFFFFFFFFF AND CALLER PUSH20 0xFFFFFFFFFFFFFFFFFFFFFFFFFFFFFFFFFFFFFFFF AND EQ PUSH2 0x5C9 JUMPI PUSH1 0x0 DUP1 REVERT JUMPDEST PUSH1 0x0 PUSH1 0x5 PUSH1 0x0 PUSH1 0x2 PUSH1 0x0 DUP2 SLOAD DUP1 SWAP3 SWAP2 SWAP1 PUSH2 0x5E2 SWAP1 PUSH2 0xE9A JUMP JUMPDEST SWAP2 SWAP1 POP SSTORE DUP2 MSTORE PUSH1 0x20 ADD SWAP1 DUP2 MSTORE PUSH1 0x20 ADD PUSH1 0x0 KECCAK256 SWAP1 POP DUP4 DUP2 PUSH1 0x0 ADD SWAP1 DUP1 MLOAD SWAP1 PUSH1 0x20 ADD SWAP1 PUSH2 0x60E SWAP3 SWAP2 SWAP1 PUSH2 0x870 JUMP JUMPDEST POP DUP3 DUP2 PUSH1 0x1 ADD DUP2 SWAP1 SSTORE POP DUP2 DUP2 PUSH1 0x2 ADD PUSH1 0x0 PUSH2 0x100 EXP DUP2 SLOAD DUP2 PUSH20 0xFFFFFFFFFFFFFFFFFFFFFFFFFFFFFFFFFFFFFFFF MUL NOT AND SWAP1 DUP4 PUSH20 0xFFFFFFFFFFFFFFFFFFFFFFFFFFFFFFFFFFFFFFFF AND MUL OR SWAP1 SSTORE POP PUSH1 0x0 DUP2 PUSH1 0x2 ADD PUSH1 0x14 PUSH2 0x100 EXP DUP2 SLOAD DUP2 PUSH1 0xFF MUL NOT AND SWAP1 DUP4 ISZERO ISZERO MUL OR SWAP1 SSTORE POP PUSH1 0x0 DUP2 PUSH1 0x3 ADD DUP2 SWAP1 SSTORE POP POP POP POP POP JUMP JUMPDEST PUSH1 0x2 SLOAD DUP2 JUMP JUMPDEST PUSH1 0x1 SLOAD DUP2 JUMP JUMPDEST PUSH1 0x1 SLOAD CALLVALUE GT PUSH2 0x6A2 JUMPI PUSH1 0x0 DUP1 REVERT JUMPDEST PUSH1 0x1 PUSH1 0x4 PUSH1 0x0 CALLER PUSH20 0xFFFFFFFFFFFFFFFFFFFFFFFFFFFFFFFFFFFFFFFF AND PUSH20 0xFFFFFFFFFFFFFFFFFFFFFFFFFFFFFFFFFFFFFFFF AND DUP2 MSTORE PUSH1 0x20 ADD SWAP1 DUP2 MSTORE PUSH1 0x20 ADD PUSH1 0x0 KECCAK256 PUSH1 0x0 PUSH2 0x100 EXP DUP2 SLOAD DUP2 PUSH1 0xFF MUL NOT AND SWAP1 DUP4 ISZERO ISZERO MUL OR SWAP1 SSTORE POP PUSH1 0x3 PUSH1 0x0 DUP2 SLOAD DUP1 SWAP3 SWAP2 SWAP1 PUSH2 0x70D SWAP1 PUSH2 0xE9A JUMP JUMPDEST SWAP2 SWAP1 POP SSTORE POP JUMP JUMPDEST PUSH1 0x4 PUSH1 0x0 CALLER PUSH20 0xFFFFFFFFFFFFFFFFFFFFFFFFFFFFFFFFFFFFFFFF AND PUSH20 0xFFFFFFFFFFFFFFFFFFFFFFFFFFFFFFFFFFFFFFFF AND DUP2 MSTORE PUSH1 0x20 ADD SWAP1 DUP2 MSTORE PUSH1 0x20 ADD PUSH1 0x0 KECCAK256 PUSH1 0x0 SWAP1 SLOAD SWAP1 PUSH2 0x100 EXP SWAP1 DIV PUSH1 0xFF AND PUSH2 0x76A JUMPI PUSH1 0x0 DUP1 REVERT JUMPDEST PUSH1 0x5 PUSH1 0x0 DUP3 DUP2 MSTORE PUSH1 0x20 ADD SWAP1 DUP2 MSTORE PUSH1 0x20 ADD PUSH1 0x0 KECCAK256 PUSH1 0x4 ADD PUSH1 0x0 CALLER PUSH20 0xFFFFFFFFFFFFFFFFFFFFFFFFFFFFFFFFFFFFFFFF AND PUSH20 0xFFFFFFFFFFFFFFFFFFFFFFFFFFFFFFFFFFFFFFFF AND DUP2 MSTORE PUSH1 0x20 ADD SWAP1 DUP2 MSTORE PUSH1 0x20 ADD PUSH1 0x0 KECCAK256 PUSH1 0x0 SWAP1 SLOAD SWAP1 PUSH2 0x100 EXP SWAP1 DIV PUSH1 0xFF AND ISZERO PUSH2 0x7D5 JUMPI PUSH1 0x0 DUP1 REVERT JUMPDEST PUSH1 0x1 PUSH1 0x5 PUSH1 0x0 DUP4 DUP2 MSTORE PUSH1 0x20 ADD SWAP1 DUP2 MSTORE PUSH1 0x20 ADD PUSH1 0x0 KECCAK256 PUSH1 0x4 ADD PUSH1 0x0 CALLER PUSH20 0xFFFFFFFFFFFFFFFFFFFFFFFFFFFFFFFFFFFFFFFF AND PUSH20 0xFFFFFFFFFFFFFFFFFFFFFFFFFFFFFFFFFFFFFFFF AND DUP2 MSTORE PUSH1 0x20 ADD SWAP1 DUP2 MSTORE PUSH1 0x20 ADD PUSH1 0x0 KECCAK256 PUSH1 0x0 PUSH2 0x100 EXP DUP2 SLOAD DUP2 PUSH1 0xFF MUL NOT AND SWAP1 DUP4 ISZERO ISZERO MUL OR SWAP1 SSTORE POP PUSH1 0x5 PUSH1 0x0 DUP3 DUP2 MSTORE PUSH1 0x20 ADD SWAP1 DUP2 MSTORE PUSH1 0x20 ADD PUSH1 0x0 KECCAK256 PUSH1 0x3 ADD PUSH1 0x0 DUP2 SLOAD DUP1 SWAP3 SWAP2 SWAP1 PUSH2 0x868 SWAP1 PUSH2 0xE9A JUMP JUMPDEST SWAP2 SWAP1 POP SSTORE POP POP JUMP JUMPDEST DUP3 DUP1 SLOAD PUSH2 0x87C SWAP1 PUSH2 0xE68 JUMP JUMPDEST SWAP1 PUSH1 0x0 MSTORE PUSH1 0x20 PUSH1 0x0 KECCAK256 SWAP1 PUSH1 0x1F ADD PUSH1 0x20 SWAP1 DIV DUP2 ADD SWAP3 DUP3 PUSH2 0x89E JUMPI PUSH1 0x0 DUP6 SSTORE PUSH2 0x8E5 JUMP JUMPDEST DUP3 PUSH1 0x1F LT PUSH2 0x8B7 JUMPI DUP1 MLOAD PUSH1 0xFF NOT AND DUP4 DUP1 ADD OR DUP6 SSTORE PUSH2 0x8E5 JUMP JUMPDEST DUP3 DUP1 ADD PUSH1 0x1 ADD DUP6 SSTORE DUP3 ISZERO PUSH2 0x8E5 JUMPI SWAP2 DUP3 ADD JUMPDEST DUP3 DUP2 GT ISZERO PUSH2 0x8E4 JUMPI DUP3 MLOAD DUP3 SSTORE SWAP2 PUSH1 0x20 ADD SWAP2 SWAP1 PUSH1 0x1 ADD SWAP1 PUSH2 0x8C9 JUMP JUMPDEST JUMPDEST POP SWAP1 POP PUSH2 0x8F2 SWAP2 SWAP1 PUSH2 0x8F6 JUMP JUMPDEST POP SWAP1 JUMP JUMPDEST JUMPDEST DUP1 DUP3 GT ISZERO PUSH2 0x90F JUMPI PUSH1 0x0 DUP2 PUSH1 0x0 SWAP1 SSTORE POP PUSH1 0x1 ADD PUSH2 0x8F7 JUMP JUMPDEST POP SWAP1 JUMP JUMPDEST PUSH1 0x0 PUSH1 0x40 MLOAD SWAP1 POP SWAP1 JUMP JUMPDEST PUSH1 0x0 DUP1 REVERT JUMPDEST PUSH1 0x0 DUP1 REVERT JUMPDEST PUSH1 0x0 DUP2 SWAP1 POP SWAP2 SWAP1 POP JUMP JUMPDEST PUSH2 0x93A DUP2 PUSH2 0x927 JUMP JUMPDEST DUP2 EQ PUSH2 0x945 JUMPI PUSH1 0x0 DUP1 REVERT JUMPDEST POP JUMP JUMPDEST PUSH1 0x0 DUP2 CALLDATALOAD SWAP1 POP PUSH2 0x957 DUP2 PUSH2 0x931 JUMP JUMPDEST SWAP3 SWAP2 POP POP JUMP JUMPDEST PUSH1 0x0 PUSH1 0x20 DUP3 DUP5 SUB SLT ISZERO PUSH2 0x973 JUMPI PUSH2 0x972 PUSH2 0x91D JUMP JUMPDEST JUMPDEST PUSH1 0x0 PUSH2 0x981 DUP5 DUP3 DUP6 ADD PUSH2 0x948 JUMP JUMPDEST SWAP2 POP POP SWAP3 SWAP2 POP POP JUMP JUMPDEST PUSH1 0x0 PUSH20 0xFFFFFFFFFFFFFFFFFFFFFFFFFFFFFFFFFFFFFFFF DUP3 AND SWAP1 POP SWAP2 SWAP1 POP JUMP JUMPDEST PUSH1 0x0 PUSH2 0x9B5 DUP3 PUSH2 0x98A JUMP JUMPDEST SWAP1 POP SWAP2 SWAP1 POP JUMP JUMPDEST PUSH2 0x9C5 DUP2 PUSH2 0x9AA JUMP JUMPDEST DUP2 EQ PUSH2 0x9D0 JUMPI PUSH1 0x0 DUP1 REVERT JUMPDEST POP JUMP JUMPDEST PUSH1 0x0 DUP2 CALLDATALOAD SWAP1 POP PUSH2 0x9E2 DUP2 PUSH2 0x9BC JUMP JUMPDEST SWAP3 SWAP2 POP POP JUMP JUMPDEST PUSH1 0x0 PUSH1 0x20 DUP3 DUP5 SUB SLT ISZERO PUSH2 0x9FE JUMPI PUSH2 0x9FD PUSH2 0x91D JUMP JUMPDEST JUMPDEST PUSH1 0x0 PUSH2 0xA0C DUP5 DUP3 DUP6 ADD PUSH2 0x9D3 JUMP JUMPDEST SWAP2 POP POP SWAP3 SWAP2 POP POP JUMP JUMPDEST PUSH1 0x0 DUP2 ISZERO ISZERO SWAP1 POP SWAP2 SWAP1 POP JUMP JUMPDEST PUSH2 0xA2A DUP2 PUSH2 0xA15 JUMP JUMPDEST DUP3 MSTORE POP POP JUMP JUMPDEST PUSH1 0x0 PUSH1 0x20 DUP3 ADD SWAP1 POP PUSH2 0xA45 PUSH1 0x0 DUP4 ADD DUP5 PUSH2 0xA21 JUMP JUMPDEST SWAP3 SWAP2 POP POP JUMP JUMPDEST PUSH2 0xA54 DUP2 PUSH2 0x927 JUMP JUMPDEST DUP3 MSTORE POP POP JUMP JUMPDEST PUSH1 0x0 PUSH1 0x20 DUP3 ADD SWAP1 POP PUSH2 0xA6F PUSH1 0x0 DUP4 ADD DUP5 PUSH2 0xA4B JUMP JUMPDEST SWAP3 SWAP2 POP POP JUMP JUMPDEST PUSH2 0xA7E DUP2 PUSH2 0x9AA JUMP JUMPDEST DUP3 MSTORE POP POP JUMP JUMPDEST PUSH1 0x0 PUSH1 0xA0 DUP3 ADD SWAP1 POP PUSH2 0xA99 PUSH1 0x0 DUP4 ADD DUP9 PUSH2 0xA4B JUMP JUMPDEST PUSH2 0xAA6 PUSH1 0x20 DUP4 ADD DUP8 PUSH2 0xA4B JUMP JUMPDEST PUSH2 0xAB3 PUSH1 0x40 DUP4 ADD DUP7 PUSH2 0xA4B JUMP JUMPDEST PUSH2 0xAC0 PUSH1 0x60 DUP4 ADD DUP6 PUSH2 0xA4B JUMP JUMPDEST PUSH2 0xACD PUSH1 0x80 DUP4 ADD DUP5 PUSH2 0xA75 JUMP JUMPDEST SWAP7 SWAP6 POP POP POP POP POP POP JUMP JUMPDEST PUSH1 0x0 PUSH2 0xAE2 DUP3 PUSH2 0x98A JUMP JUMPDEST SWAP1 POP SWAP2 SWAP1 POP JUMP JUMPDEST PUSH2 0xAF2 DUP2 PUSH2 0xAD7 JUMP JUMPDEST DUP3 MSTORE POP POP JUMP JUMPDEST PUSH1 0x0 PUSH1 0x20 DUP3 ADD SWAP1 POP PUSH2 0xB0D PUSH1 0x0 DUP4 ADD DUP5 PUSH2 0xAE9 JUMP JUMPDEST SWAP3 SWAP2 POP POP JUMP JUMPDEST PUSH1 0x0 DUP2 MLOAD SWAP1 POP SWAP2 SWAP1 POP JUMP JUMPDEST PUSH1 0x0 DUP3 DUP3 MSTORE PUSH1 0x20 DUP3 ADD SWAP1 POP SWAP3 SWAP2 POP POP JUMP JUMPDEST PUSH1 0x0 JUMPDEST DUP4 DUP2 LT ISZERO PUSH2 0xB4D JUMPI DUP1 DUP3 ADD MLOAD DUP2 DUP5 ADD MSTORE PUSH1 0x20 DUP2 ADD SWAP1 POP PUSH2 0xB32 JUMP JUMPDEST DUP4 DUP2 GT ISZERO PUSH2 0xB5C JUMPI PUSH1 0x0 DUP5 DUP5 ADD MSTORE JUMPDEST POP POP POP POP JUMP JUMPDEST PUSH1 0x0 PUSH1 0x1F NOT PUSH1 0x1F DUP4 ADD AND SWAP1 POP SWAP2 SWAP1 POP JUMP JUMPDEST PUSH1 0x0 PUSH2 0xB7E DUP3 PUSH2 0xB13 JUMP JUMPDEST PUSH2 0xB88 DUP2 DUP6 PUSH2 0xB1E JUMP JUMPDEST SWAP4 POP PUSH2 0xB98 DUP2 DUP6 PUSH1 0x20 DUP7 ADD PUSH2 0xB2F JUMP JUMPDEST PUSH2 0xBA1 DUP2 PUSH2 0xB62 JUMP JUMPDEST DUP5 ADD SWAP2 POP POP SWAP3 SWAP2 POP POP JUMP JUMPDEST PUSH1 0x0 PUSH1 0xA0 DUP3 ADD SWAP1 POP DUP2 DUP2 SUB PUSH1 0x0 DUP4 ADD MSTORE PUSH2 0xBC6 DUP2 DUP9 PUSH2 0xB73 JUMP JUMPDEST SWAP1 POP PUSH2 0xBD5 PUSH1 0x20 DUP4 ADD DUP8 PUSH2 0xA4B JUMP JUMPDEST PUSH2 0xBE2 PUSH1 0x40 DUP4 ADD DUP7 PUSH2 0xAE9 JUMP JUMPDEST PUSH2 0xBEF PUSH1 0x60 DUP4 ADD DUP6 PUSH2 0xA21 JUMP JUMPDEST PUSH2 0xBFC PUSH1 0x80 DUP4 ADD DUP5 PUSH2 0xA4B JUMP JUMPDEST SWAP7 SWAP6 POP POP POP POP POP POP JUMP JUMPDEST PUSH1 0x0 DUP1 REVERT JUMPDEST PUSH1 0x0 DUP1 REVERT JUMPDEST PUSH32 0x4E487B7100000000000000000000000000000000000000000000000000000000 PUSH1 0x0 MSTORE PUSH1 0x41 PUSH1 0x4 MSTORE PUSH1 0x24 PUSH1 0x0 REVERT JUMPDEST PUSH2 0xC48 DUP3 PUSH2 0xB62 JUMP JUMPDEST DUP2 ADD DUP2 DUP2 LT PUSH8 0xFFFFFFFFFFFFFFFF DUP3 GT OR ISZERO PUSH2 0xC67 JUMPI PUSH2 0xC66 PUSH2 0xC10 JUMP JUMPDEST JUMPDEST DUP1 PUSH1 0x40 MSTORE POP POP POP JUMP JUMPDEST PUSH1 0x0 PUSH2 0xC7A PUSH2 0x913 JUMP JUMPDEST SWAP1 POP PUSH2 0xC86 DUP3 DUP3 PUSH2 0xC3F JUMP JUMPDEST SWAP2 SWAP1 POP JUMP JUMPDEST PUSH1 0x0 PUSH8 0xFFFFFFFFFFFFFFFF DUP3 GT ISZERO PUSH2 0xCA6 JUMPI PUSH2 0xCA5 PUSH2 0xC10 JUMP JUMPDEST JUMPDEST PUSH2 0xCAF DUP3 PUSH2 0xB62 JUMP JUMPDEST SWAP1 POP PUSH1 0x20 DUP2 ADD SWAP1 POP SWAP2 SWAP1 POP JUMP JUMPDEST DUP3 DUP2 DUP4 CALLDATACOPY PUSH1 0x0 DUP4 DUP4 ADD MSTORE POP POP POP JUMP JUMPDEST PUSH1 0x0 PUSH2 0xCDE PUSH2 0xCD9 DUP5 PUSH2 0xC8B JUMP JUMPDEST PUSH2 0xC70 JUMP JUMPDEST SWAP1 POP DUP3 DUP2 MSTORE PUSH1 0x20 DUP2 ADD DUP5 DUP5 DUP5 ADD GT ISZERO PUSH2 0xCFA JUMPI PUSH2 0xCF9 PUSH2 0xC0B JUMP JUMPDEST JUMPDEST PUSH2 0xD05 DUP5 DUP3 DUP6 PUSH2 0xCBC JUMP JUMPDEST POP SWAP4 SWAP3 POP POP POP JUMP JUMPDEST PUSH1 0x0 DUP3 PUSH1 0x1F DUP4 ADD SLT PUSH2 0xD22 JUMPI PUSH2 0xD21 PUSH2 0xC06 JUMP JUMPDEST JUMPDEST DUP2 CALLDATALOAD PUSH2 0xD32 DUP5 DUP3 PUSH1 0x20 DUP7 ADD PUSH2 0xCCB JUMP JUMPDEST SWAP2 POP POP SWAP3 SWAP2 POP POP JUMP JUMPDEST PUSH1 0x0 DUP1 PUSH1 0x0 PUSH1 0x60 DUP5 DUP7 SUB SLT ISZERO PUSH2 0xD54 JUMPI PUSH2 0xD53 PUSH2 0x91D JUMP JUMPDEST JUMPDEST PUSH1 0x0 DUP5 ADD CALLDATALOAD PUSH8 0xFFFFFFFFFFFFFFFF DUP2 GT ISZERO PUSH2 0xD72 JUMPI PUSH2 0xD71 PUSH2 0x922 JUMP JUMPDEST JUMPDEST PUSH2 0xD7E DUP7 DUP3 DUP8 ADD PUSH2 0xD0D JUMP JUMPDEST SWAP4 POP POP PUSH1 0x20 PUSH2 0xD8F DUP7 DUP3 DUP8 ADD PUSH2 0x948 JUMP JUMPDEST SWAP3 POP POP PUSH1 0x40 PUSH2 0xDA0 DUP7 DUP3 DUP8 ADD PUSH2 0x9D3 JUMP JUMPDEST SWAP2 POP POP SWAP3 POP SWAP3 POP SWAP3 JUMP JUMPDEST PUSH32 0x4E487B7100000000000000000000000000000000000000000000000000000000 PUSH1 0x0 MSTORE PUSH1 0x12 PUSH1 0x4 MSTORE PUSH1 0x24 PUSH1 0x0 REVERT JUMPDEST PUSH32 0x4E487B7100000000000000000000000000000000000000000000000000000000 PUSH1 0x0 MSTORE PUSH1 0x11 PUSH1 0x4 MSTORE PUSH1 0x24 PUSH1 0x0 REVERT JUMPDEST PUSH1 0x0 PUSH2 0xE13 DUP3 PUSH2 0x927 JUMP JUMPDEST SWAP2 POP PUSH2 0xE1E DUP4 PUSH2 0x927 JUMP JUMPDEST SWAP3 POP DUP3 PUSH2 0xE2E JUMPI PUSH2 0xE2D PUSH2 0xDAA JUMP JUMPDEST JUMPDEST DUP3 DUP3 DIV SWAP1 POP SWAP3 SWAP2 POP POP JUMP JUMPDEST PUSH32 0x4E487B7100000000000000000000000000000000000000000000000000000000 PUSH1 0x0 MSTORE PUSH1 0x22 PUSH1 0x4 MSTORE PUSH1 0x24 PUSH1 0x0 REVERT JUMPDEST PUSH1 0x0 PUSH1 0x2 DUP3 DIV SWAP1 POP PUSH1 0x1 DUP3 AND DUP1 PUSH2 0xE80 JUMPI PUSH1 0x7F DUP3 AND SWAP2 POP JUMPDEST PUSH1 0x20 DUP3 LT DUP2 EQ ISZERO PUSH2 0xE94 JUMPI PUSH2 0xE93 PUSH2 0xE39 JUMP JUMPDEST JUMPDEST POP SWAP2 SWAP1 POP JUMP JUMPDEST PUSH1 0x0 PUSH2 0xEA5 DUP3 PUSH2 0x927 JUMP JUMPDEST SWAP2 POP PUSH32 0xFFFFFFFFFFFFFFFFFFFFFFFFFFFFFFFFFFFFFFFFFFFFFFFFFFFFFFFFFFFFFFFF DUP3 EQ ISZERO PUSH2 0xED8 JUMPI PUSH2 0xED7 PUSH2 0xDD9 JUMP JUMPDEST JUMPDEST PUSH1 0x1 DUP3 ADD SWAP1 POP SWAP2 SWAP1 POP JUMP INVALID LOG2 PUSH5 0x6970667358 0x22 SLT KECCAK256 0xE5 PUSH20 0x3B78C49087ACE2A929F1ACADC09212ED74AF0E11 0xBF 0xE9 DIV 0xC1 0xCD 0xEB 0xCA SWAP9 0x4B 0xBE PUSH5 0x736F6C6343 STOP ADDMOD MULMOD STOP CALLER LOG2 PUSH5 0x6970667358 0x22 SLT KECCAK256 ISZERO 0x22 0x2F PC 0xD2 0xD9 0xBC PUSH5 0x2C7251CEB3 0xC2 0xB4 0x4F DUP11 PUSH25 0x38E30F4D27068154672649B2167F64736F6C63430008090033 "},"gasEstimates":{"creation":{"codeDepositCost":"1067200","executionCost":"1107","totalCost":"1068307"},"external":{"createCampaign(uint256)":"infinite","deployedCampaigns(uint256)":"4934","getAllCampaigns()":"infinite"}},"methodIdentifiers":{"createCampaign(uint256)":"a3303a75","deployedCampaigns(uint256)":"339d50a5","getAllCampaigns()":"86cdf604"}},"storageLayout":{"storage":[{"astId":4,"contract":"Campaign.sol:CampaignFactory","label":"deployedCampaigns","offset":0,"slot":"0","type":"t_array(t_address)dyn_storage"}],"types":{"t_address":{"encoding":"inplace","label":"address","numberOfBytes":"20"},"t_array(t_address)dyn_storage":{"base":"t_address","encoding":"dynamic_array","label":"address[]","numberOfBytes":"32"}}},"userdoc":{"kind":"user","methods":{},"version":1}}